{
  "contractName": "Ecosystem",
  "abi": [
    {
      "inputs": [],
      "payable": false,
      "stateMutability": "nonpayable",
      "type": "constructor"
    },
    {
      "anonymous": false,
      "inputs": [
        {
          "indexed": false,
          "internalType": "address",
          "name": "",
          "type": "address"
        }
      ],
      "name": "AddCA",
      "type": "event"
    },
    {
      "anonymous": false,
      "inputs": [
        {
          "indexed": false,
          "internalType": "uint256",
          "name": "",
          "type": "uint256"
        }
      ],
      "name": "Approved",
      "type": "event"
    },
    {
      "anonymous": false,
      "inputs": [
        {
          "indexed": false,
          "internalType": "uint256",
          "name": "",
          "type": "uint256"
        }
      ],
      "name": "Pending",
      "type": "event"
    },
    {
      "anonymous": false,
      "inputs": [
        {
          "indexed": false,
          "internalType": "uint256",
          "name": "",
          "type": "uint256"
        }
      ],
      "name": "Rejected",
      "type": "event"
    },
    {
      "anonymous": false,
      "inputs": [
        {
          "indexed": false,
          "internalType": "address",
          "name": "",
          "type": "address"
        }
      ],
      "name": "RemoveCA",
      "type": "event"
    },
    {
      "constant": false,
      "inputs": [
        {
          "internalType": "address",
          "name": "addressCA",
          "type": "address"
        }
      ],
      "name": "addToCA",
      "outputs": [],
      "payable": false,
      "stateMutability": "nonpayable",
      "type": "function"
    },
    {
      "constant": false,
      "inputs": [
        {
          "internalType": "address",
          "name": "addressCA",
          "type": "address"
        }
      ],
      "name": "removeFromCA",
      "outputs": [],
      "payable": false,
      "stateMutability": "nonpayable",
      "type": "function"
    },
    {
      "constant": false,
      "inputs": [
        {
          "internalType": "bytes32",
          "name": "name",
          "type": "bytes32"
        },
        {
          "internalType": "bytes32",
          "name": "UEN",
          "type": "bytes32"
        },
        {
          "internalType": "bytes16",
          "name": "industry",
          "type": "bytes16"
        },
        {
          "internalType": "bytes32",
          "name": "listedAddress",
          "type": "bytes32"
        }
      ],
      "name": "createOrganization",
      "outputs": [],
      "payable": false,
      "stateMutability": "nonpayable",
      "type": "function"
    },
    {
      "constant": false,
      "inputs": [
        {
          "internalType": "uint256",
          "name": "orgID",
          "type": "uint256"
        }
      ],
      "name": "approveOrganization",
      "outputs": [],
      "payable": false,
      "stateMutability": "nonpayable",
      "type": "function"
    },
    {
      "constant": false,
      "inputs": [
        {
          "internalType": "uint256",
          "name": "orgID",
          "type": "uint256"
        }
      ],
      "name": "removeOrganiztion",
      "outputs": [],
      "payable": false,
      "stateMutability": "nonpayable",
      "type": "function"
    },
    {
      "constant": true,
      "inputs": [
        {
          "internalType": "uint256",
          "name": "id",
          "type": "uint256"
        }
      ],
      "name": "getName",
      "outputs": [
        {
          "internalType": "bytes32",
          "name": "",
          "type": "bytes32"
        }
      ],
      "payable": false,
      "stateMutability": "view",
      "type": "function"
    },
    {
      "constant": true,
      "inputs": [
        {
          "internalType": "uint256",
          "name": "id",
          "type": "uint256"
        }
      ],
      "name": "getUEN",
      "outputs": [
        {
          "internalType": "bytes32",
          "name": "",
          "type": "bytes32"
        }
      ],
      "payable": false,
      "stateMutability": "view",
      "type": "function"
    },
    {
      "constant": true,
      "inputs": [
        {
          "internalType": "uint256",
          "name": "id",
          "type": "uint256"
        }
      ],
      "name": "getIndustry",
      "outputs": [
        {
          "internalType": "bytes16",
          "name": "",
          "type": "bytes16"
        }
      ],
      "payable": false,
      "stateMutability": "view",
      "type": "function"
    },
    {
      "constant": true,
      "inputs": [
        {
          "internalType": "uint256",
          "name": "id",
          "type": "uint256"
        }
      ],
      "name": "getAddress",
      "outputs": [
        {
          "internalType": "bytes32",
          "name": "",
          "type": "bytes32"
        }
      ],
      "payable": false,
      "stateMutability": "view",
      "type": "function"
    },
    {
      "constant": true,
      "inputs": [],
      "name": "numberOrganization",
      "outputs": [
        {
          "internalType": "uint256",
          "name": "",
          "type": "uint256"
        }
      ],
      "payable": false,
      "stateMutability": "view",
      "type": "function"
    },
    {
      "constant": true,
      "inputs": [],
      "name": "getContractOwner",
      "outputs": [
        {
          "internalType": "address",
          "name": "",
          "type": "address"
        }
      ],
      "payable": false,
      "stateMutability": "view",
      "type": "function"
    }
  ],
  "bytecode": "0x608060405234801561001057600080fd5b50336000806101000a81548173ffffffffffffffffffffffffffffffffffffffff021916908373ffffffffffffffffffffffffffffffffffffffff160217905550610e90806100606000396000f3fe608060405234801561001057600080fd5b50600436106100a95760003560e01c8063af2bfb4111610071578063af2bfb41146101ee578063b93f9b0a1461020c578063d3b919951461024e578063e440628c1461027c578063f3621b33146102e4578063fdd83a2a14610343576100a9565b80630dddf063146100ae5780633151db5e146100dc578063361e25aa14610120578063442890d5146101625780636b8ff574146101ac575b600080fd5b6100da600480360360208110156100c457600080fd5b8101908080359060200190929190505050610387565b005b61011e600480360360208110156100f257600080fd5b81019080803573ffffffffffffffffffffffffffffffffffffffff16906020019092919050505061057d565b005b61014c6004803603602081101561013657600080fd5b81019080803590602001909291905050506106e0565b6040518082815260200191505060405180910390f35b61016a610700565b604051808273ffffffffffffffffffffffffffffffffffffffff1673ffffffffffffffffffffffffffffffffffffffff16815260200191505060405180910390f35b6101d8600480360360208110156101c257600080fd5b8101908080359060200190929190505050610729565b6040518082815260200191505060405180910390f35b6101f6610749565b6040518082815260200191505060405180910390f35b6102386004803603602081101561022257600080fd5b8101908080359060200190929190505050610753565b6040518082815260200191505060405180910390f35b61027a6004803603602081101561026457600080fd5b8101908080359060200190929190505050610773565b005b6102a86004803603602081101561029257600080fd5b81019080803590602001909291905050506108e5565b60405180826fffffffffffffffffffffffffffffffff19166fffffffffffffffffffffffffffffffff1916815260200191505060405180910390f35b610341600480360360808110156102fa57600080fd5b81019080803590602001909291908035906020019092919080356fffffffffffffffffffffffffffffffff1916906020019092919080359060200190929190505050610912565b005b6103856004803603602081101561035957600080fd5b81019080803573ffffffffffffffffffffffffffffffffffffffff169060200190929190505050610b6c565b005b60011515600360003373ffffffffffffffffffffffffffffffffffffffff1673ffffffffffffffffffffffffffffffffffffffff16815260200190815260200160002060009054906101000a900460ff161515148061043257506000809054906101000a900473ffffffffffffffffffffffffffffffffffffffff1673ffffffffffffffffffffffffffffffffffffffff163373ffffffffffffffffffffffffffffffffffffffff16145b610487576040517f08c379a000000000000000000000000000000000000000000000000000000000815260040180806020018281038252602f815260200180610e2d602f913960400191505060405180910390fd5b60016002600083815260200190815260200160002060050160006101000a81548160ff021916908315150217905550306004600083815260200190815260200160002060000160006101000a81548173ffffffffffffffffffffffffffffffffffffffff021916908373ffffffffffffffffffffffffffffffffffffffff16021790555060016004600083815260200190815260200160002060000160146101000a81548160ff0219169083600281111561053e57fe5b02179055507f3ad93af63cb7967b23e4fb500b7d7d28b07516325dcf341f88bebf959d82c1cb816040518082815260200191505060405180910390a150565b6000809054906101000a900473ffffffffffffffffffffffffffffffffffffffff1673ffffffffffffffffffffffffffffffffffffffff163373ffffffffffffffffffffffffffffffffffffffff1614610622576040517f08c379a0000000000000000000000000000000000000000000000000000000008152600401808060200182810382526030815260200180610dfd6030913960400191505060405180910390fd5b6000600360008373ffffffffffffffffffffffffffffffffffffffff1673ffffffffffffffffffffffffffffffffffffffff16815260200190815260200160002060006101000a81548160ff0219169083151502179055507f2a8c022b6283d5c03f41a36102e952cca731a7be38fa32aa1551950c766889e581604051808273ffffffffffffffffffffffffffffffffffffffff1673ffffffffffffffffffffffffffffffffffffffff16815260200191505060405180910390a150565b600060026000838152602001908152602001600020600201549050919050565b60008060009054906101000a900473ffffffffffffffffffffffffffffffffffffffff16905090565b600060026000838152602001908152602001600020600101549050919050565b6000600154905090565b600060026000838152602001908152602001600020600401549050919050565b60011515600360003373ffffffffffffffffffffffffffffffffffffffff1673ffffffffffffffffffffffffffffffffffffffff16815260200190815260200160002060009054906101000a900460ff161515148061081e57506000809054906101000a900473ffffffffffffffffffffffffffffffffffffffff1673ffffffffffffffffffffffffffffffffffffffff163373ffffffffffffffffffffffffffffffffffffffff16145b610873576040517f08c379a000000000000000000000000000000000000000000000000000000000815260040180806020018281038252602f815260200180610e2d602f913960400191505060405180910390fd5b60026004600083815260200190815260200160002060000160146101000a81548160ff021916908360028111156108a657fe5b02179055507f94064f919a02d0565c6790e0615fb4ba6cf1be1dd679f0161be914613a1b9bb5816040518082815260200191505060405180910390a150565b60006002600083815260200190815260200160002060030160009054906101000a900460801b9050919050565b60006001549050610921610d57565b6040518060c001604052803373ffffffffffffffffffffffffffffffffffffffff168152602001878152602001868152602001856fffffffffffffffffffffffffffffffff19168152602001848152602001600015158152509050806002600084815260200190815260200160002060008201518160000160006101000a81548173ffffffffffffffffffffffffffffffffffffffff021916908373ffffffffffffffffffffffffffffffffffffffff160217905550602082015181600101556040820151816002015560608201518160030160006101000a8154816fffffffffffffffffffffffffffffffff021916908360801c02179055506080820151816004015560a08201518160050160006101000a81548160ff021916908315150217905550905050610a50610dc1565b6040518060400160405280600073ffffffffffffffffffffffffffffffffffffffff16815260200160006002811115610a8557fe5b8152509050806004600085815260200190815260200160002060008201518160000160006101000a81548173ffffffffffffffffffffffffffffffffffffffff021916908373ffffffffffffffffffffffffffffffffffffffff16021790555060208201518160000160146101000a81548160ff02191690836002811115610b0957fe5b0217905550905050610b2660018054610ccf90919063ffffffff16565b6001819055507f4e2c5ab35c5a6c864cb37f0d4b556e39e83aa85e744306ad9fd3ad7cc933028b836040518082815260200191505060405180910390a150505050505050565b6000809054906101000a900473ffffffffffffffffffffffffffffffffffffffff1673ffffffffffffffffffffffffffffffffffffffff163373ffffffffffffffffffffffffffffffffffffffff1614610c11576040517f08c379a0000000000000000000000000000000000000000000000000000000008152600401808060200182810382526030815260200180610dfd6030913960400191505060405180910390fd5b6001600360008373ffffffffffffffffffffffffffffffffffffffff1673ffffffffffffffffffffffffffffffffffffffff16815260200190815260200160002060006101000a81548160ff0219169083151502179055507fba91834e252c07f622020451af556e5e875b7749edf28b6966016b1add7631fc81604051808273ffffffffffffffffffffffffffffffffffffffff1673ffffffffffffffffffffffffffffffffffffffff16815260200191505060405180910390a150565b600080828401905083811015610d4d576040517f08c379a000000000000000000000000000000000000000000000000000000000815260040180806020018281038252601b8152602001807f536166654d6174683a206164646974696f6e206f766572666c6f77000000000081525060200191505060405180910390fd5b8091505092915050565b6040518060c00160405280600073ffffffffffffffffffffffffffffffffffffffff168152602001600080191681526020016000801916815260200160006fffffffffffffffffffffffffffffffff19168152602001600080191681526020016000151581525090565b6040518060400160405280600073ffffffffffffffffffffffffffffffffffffffff16815260200160006002811115610df657fe5b8152509056fe4f6e6c7920636f6e7472616374206f776e6572206861732061636365737320746f20746869732066756e6374696f6e214f6e6c7920617574686f72697a6564204341206861732061636365737320746f20746869732066756e6374696f6e21a265627a7a723158204070ba10ca05330785300f9635b145caeedac0eb3a80210efdf5347a3ca39f0264736f6c63430005100032",
  "source": "pragma solidity ^0.5.0;\r\n\r\n// import \"./Certificate.sol\";\r\nimport \"../node_modules/@openzeppelin/contracts/math/SafeMath.sol\";\r\n\r\n// Organizations are treated as NFTs, issued by CAs\r\ncontract Ecosystem {\r\n    using SafeMath for uint256;\r\n    address contractOwner;\r\n    uint256 organizationID;\r\n    enum transactionState { pending, approved, rejected }\r\n\r\n    constructor() public {\r\n        contractOwner = msg.sender;\r\n    }\r\n\r\n    struct certificate {\r\n        uint256 id;\r\n        address recipient;\r\n        uint256 issuer;\r\n        bool isValid;\r\n        uint256 details;\r\n    }\r\n\r\n    struct recommendationLetter {\r\n        uint256 id;\r\n        \r\n    }\r\n\r\n    struct transactionBlock {\r\n        address certifiedAuthority;\r\n        transactionState state;\r\n    }\r\n\r\n    struct organization {\r\n        address creator;\r\n        bytes32 name;\r\n        bytes32 UEN; \r\n        bytes16 industry;\r\n        bytes32 listedAddress;\r\n        bool isValid;\r\n    }\r\n\r\n    mapping(uint256 => organization) organizations;\r\n    mapping(address => bool) certificateAuthorities;\r\n    mapping (uint256 => transactionBlock) transactionDetails;\r\n\r\n    mapping (uint256 => transactionBlock) pendingList;\r\n\r\n    event Pending(uint256);\r\n    event Approved(uint256);\r\n    event Rejected(uint256);\r\n    event AddCA(address);\r\n    event RemoveCA(address);\r\n\r\n    modifier isContractOwner() {\r\n        require(msg.sender == contractOwner, \"Only contract owner has access to this function!\");\r\n        _;\r\n    }\r\n\r\n    // Contract owner is always an authorized CA\r\n    modifier isAuthorizedIssuer() {\r\n        require(certificateAuthorities[msg.sender] == true || msg.sender == contractOwner, \"Only authorized CA has access to this function!\");\r\n        _;\r\n    }\r\n\r\n    function addToCA(address addressCA) public isContractOwner() {\r\n        certificateAuthorities[addressCA] = true;\r\n        emit AddCA(addressCA);\r\n    }\r\n\r\n    function removeFromCA(address addressCA) public isContractOwner() {\r\n        certificateAuthorities[addressCA] = false;\r\n        emit RemoveCA(addressCA);\r\n    }\r\n\r\n\r\n\r\n\r\n    // When an organization applies to join the network for the first time\r\n    function createOrganization(bytes32 name, bytes32 UEN, bytes16 industry, bytes32 listedAddress) public {\r\n        uint256 newOrgID = organizationID;\r\n\r\n        organization memory newOrg = organization(msg.sender, name, UEN, industry, listedAddress, false);\r\n        organizations[newOrgID] = newOrg; \r\n\r\n        transactionBlock memory newBlock = transactionBlock(address(0), transactionState.pending);\r\n        transactionDetails[newOrgID] = newBlock;\r\n\r\n        organizationID = organizationID.add(1);\r\n        emit Pending(newOrgID);\r\n    }\r\n\r\n    function approveOrganization(uint256 orgID) public isAuthorizedIssuer() {\r\n        organizations[orgID].isValid = true;\r\n        transactionDetails[orgID].certifiedAuthority = address(this);\r\n        transactionDetails[orgID].state = transactionState.approved;\r\n        emit Approved(orgID);\r\n    }\r\n\r\n    function removeOrganiztion(uint256 orgID) public isAuthorizedIssuer() {\r\n        transactionDetails[orgID].state = transactionState.rejected;\r\n        emit Rejected(orgID);\r\n    }\r\n\r\n    // Getter functions which are available for all stakeholders in the network\r\n    function getName(uint256 id) public view returns(bytes32) {\r\n        return organizations[id].name;\r\n    }\r\n\r\n    function getUEN(uint256 id) public view returns(bytes32) {\r\n        return organizations[id].UEN;\r\n    }\r\n\r\n    function getIndustry(uint256 id) public view returns(bytes16) {\r\n        return organizations[id].industry;\r\n    }\r\n\r\n    function getAddress(uint256 id) public view returns(bytes32) {\r\n        return organizations[id].listedAddress;\r\n    }\r\n\r\n    function numberOrganization() public view returns(uint256) {\r\n        return organizationID;\r\n    }\r\n\r\n    function getContractOwner() public view returns(address) {\r\n        return contractOwner;\r\n    }\r\n}",
  "sourcePath": "C:\\Users\\Huang Ming\\Desktop\\LifeBlock\\BackEnd\\contracts\\Ecosystem.sol",
  "compiler": {
    "name": "solc",
    "version": "0.5.16+commit.9c3226ce.Emscripten.clang"
  },
  "schemaVersion": "3.0.23",
  "updatedAt": "2020-03-01T14:36:14.964Z",
  "devdoc": {
    "methods": {}
  },
  "userdoc": {
    "methods": {}
  }
}