{
  "contractName": "FoodChainEcosystem",
  "abi": [
    {
      "inputs": [],
      "payable": false,
      "stateMutability": "nonpayable",
      "type": "constructor"
    },
    {
      "anonymous": false,
      "inputs": [
        {
          "indexed": false,
          "internalType": "uint256",
          "name": "packageID",
          "type": "uint256"
        }
      ],
      "name": "CreatedPackage",
      "type": "event"
    },
    {
      "anonymous": false,
      "inputs": [
        {
          "indexed": false,
          "internalType": "uint256",
          "name": "produceID",
          "type": "uint256"
        }
      ],
      "name": "CreatedProduce",
      "type": "event"
    },
    {
      "anonymous": false,
      "inputs": [
        {
          "indexed": false,
          "internalType": "uint256",
          "name": "packageID",
          "type": "uint256"
        }
      ],
      "name": "DeliveredPackage",
      "type": "event"
    },
    {
      "anonymous": false,
      "inputs": [
        {
          "indexed": false,
          "internalType": "uint256",
          "name": "produceID",
          "type": "uint256"
        }
      ],
      "name": "ProcessedProduce",
      "type": "event"
    },
    {
      "anonymous": false,
      "inputs": [
        {
          "indexed": false,
          "internalType": "address",
          "name": "processorAddress",
          "type": "address"
        }
      ],
      "name": "RegisteredProcessor",
      "type": "event"
    },
    {
      "anonymous": false,
      "inputs": [
        {
          "indexed": false,
          "internalType": "address",
          "name": "producerAddress",
          "type": "address"
        }
      ],
      "name": "RegisteredProducer",
      "type": "event"
    },
    {
      "anonymous": false,
      "inputs": [
        {
          "indexed": false,
          "internalType": "address",
          "name": "retailerAddress",
          "type": "address"
        }
      ],
      "name": "RegisteredRetailer",
      "type": "event"
    },
    {
      "anonymous": false,
      "inputs": [
        {
          "indexed": false,
          "internalType": "uint256",
          "name": "packageID",
          "type": "uint256"
        }
      ],
      "name": "SoldPackage",
      "type": "event"
    },
    {
      "constant": false,
      "inputs": [
        {
          "internalType": "address",
          "name": "producerAddress",
          "type": "address"
        }
      ],
      "name": "registerProducer",
      "outputs": [],
      "payable": false,
      "stateMutability": "nonpayable",
      "type": "function"
    },
    {
      "constant": false,
      "inputs": [
        {
          "internalType": "address",
          "name": "processorAddress",
          "type": "address"
        }
      ],
      "name": "registerProcessor",
      "outputs": [],
      "payable": false,
      "stateMutability": "nonpayable",
      "type": "function"
    },
    {
      "constant": false,
      "inputs": [
        {
          "internalType": "address",
          "name": "retailerAddress",
          "type": "address"
        }
      ],
      "name": "registerRetailer",
      "outputs": [],
      "payable": false,
      "stateMutability": "nonpayable",
      "type": "function"
    },
    {
      "constant": false,
      "inputs": [
        {
          "internalType": "bytes",
          "name": "produceReferenceID",
          "type": "bytes"
        },
        {
          "internalType": "bytes",
          "name": "produceName",
          "type": "bytes"
        },
        {
          "internalType": "uint256",
          "name": "dateofBirth",
          "type": "uint256"
        }
      ],
      "name": "createProduce",
      "outputs": [],
      "payable": false,
      "stateMutability": "nonpayable",
      "type": "function"
    },
    {
      "constant": false,
      "inputs": [
        {
          "internalType": "uint256",
          "name": "produceID",
          "type": "uint256"
        },
        {
          "internalType": "address",
          "name": "processor",
          "type": "address"
        }
      ],
      "name": "sendForProcessing",
      "outputs": [],
      "payable": false,
      "stateMutability": "nonpayable",
      "type": "function"
    },
    {
      "constant": false,
      "inputs": [
        {
          "internalType": "uint256",
          "name": "produceID",
          "type": "uint256"
        },
        {
          "internalType": "bytes",
          "name": "packageReferenceID",
          "type": "bytes"
        },
        {
          "internalType": "bytes",
          "name": "packageName",
          "type": "bytes"
        },
        {
          "internalType": "bytes",
          "name": "packagedCategory",
          "type": "bytes"
        },
        {
          "internalType": "uint256",
          "name": "packagedWeight",
          "type": "uint256"
        },
        {
          "internalType": "uint256",
          "name": "packagedDate",
          "type": "uint256"
        },
        {
          "internalType": "uint256",
          "name": "bestBefore",
          "type": "uint256"
        }
      ],
      "name": "createPackage",
      "outputs": [],
      "payable": false,
      "stateMutability": "nonpayable",
      "type": "function"
    },
    {
      "constant": false,
      "inputs": [
        {
          "internalType": "uint256",
          "name": "packageID",
          "type": "uint256"
        },
        {
          "internalType": "address",
          "name": "retailer",
          "type": "address"
        }
      ],
      "name": "sendToRetailer",
      "outputs": [],
      "payable": false,
      "stateMutability": "nonpayable",
      "type": "function"
    },
    {
      "constant": false,
      "inputs": [
        {
          "internalType": "uint256",
          "name": "packageID",
          "type": "uint256"
        }
      ],
      "name": "sellPackage",
      "outputs": [],
      "payable": false,
      "stateMutability": "nonpayable",
      "type": "function"
    },
    {
      "constant": true,
      "inputs": [
        {
          "internalType": "uint256",
          "name": "produceID",
          "type": "uint256"
        }
      ],
      "name": "getProduceInformation",
      "outputs": [
        {
          "components": [
            {
              "internalType": "bytes",
              "name": "produceReferenceID",
              "type": "bytes"
            },
            {
              "internalType": "bytes",
              "name": "produceName",
              "type": "bytes"
            },
            {
              "internalType": "uint256",
              "name": "dateOfBirth",
              "type": "uint256"
            },
            {
              "internalType": "address",
              "name": "producer",
              "type": "address"
            }
          ],
          "internalType": "struct FoodChainEcosystem.produce",
          "name": "",
          "type": "tuple"
        }
      ],
      "payable": false,
      "stateMutability": "view",
      "type": "function"
    },
    {
      "constant": true,
      "inputs": [
        {
          "internalType": "address",
          "name": "selectedUser",
          "type": "address"
        }
      ],
      "name": "getNumberProduce",
      "outputs": [
        {
          "internalType": "uint256",
          "name": "",
          "type": "uint256"
        }
      ],
      "payable": false,
      "stateMutability": "view",
      "type": "function"
    },
    {
      "constant": true,
      "inputs": [
        {
          "internalType": "address",
          "name": "selectedUser",
          "type": "address"
        }
      ],
      "name": "getNumberPackage",
      "outputs": [
        {
          "internalType": "uint256",
          "name": "",
          "type": "uint256"
        }
      ],
      "payable": false,
      "stateMutability": "view",
      "type": "function"
    },
    {
      "constant": true,
      "inputs": [
        {
          "internalType": "uint256",
          "name": "produceID",
          "type": "uint256"
        }
      ],
      "name": "getProduceOwner",
      "outputs": [
        {
          "internalType": "address",
          "name": "",
          "type": "address"
        }
      ],
      "payable": false,
      "stateMutability": "view",
      "type": "function"
    },
    {
      "constant": true,
      "inputs": [
        {
          "internalType": "uint256",
          "name": "produceID",
          "type": "uint256"
        },
        {
          "internalType": "address",
          "name": "owner",
          "type": "address"
        }
      ],
      "name": "getProduceIndex",
      "outputs": [
        {
          "internalType": "uint256",
          "name": "",
          "type": "uint256"
        }
      ],
      "payable": false,
      "stateMutability": "view",
      "type": "function"
    },
    {
      "constant": true,
      "inputs": [
        {
          "internalType": "uint256",
          "name": "index",
          "type": "uint256"
        },
        {
          "internalType": "address",
          "name": "owner",
          "type": "address"
        }
      ],
      "name": "getProduceIDFromIndex",
      "outputs": [
        {
          "internalType": "uint256",
          "name": "",
          "type": "uint256"
        }
      ],
      "payable": false,
      "stateMutability": "view",
      "type": "function"
    },
    {
      "constant": true,
      "inputs": [
        {
          "internalType": "uint256",
          "name": "index",
          "type": "uint256"
        },
        {
          "internalType": "address",
          "name": "owner",
          "type": "address"
        }
      ],
      "name": "getProduceNameFromIndex",
      "outputs": [
        {
          "internalType": "bytes",
          "name": "",
          "type": "bytes"
        }
      ],
      "payable": false,
      "stateMutability": "view",
      "type": "function"
    },
    {
      "constant": true,
      "inputs": [
        {
          "internalType": "address",
          "name": "ownerAddress",
          "type": "address"
        }
      ],
      "name": "getProduceOwned",
      "outputs": [
        {
          "components": [
            {
              "internalType": "bytes",
              "name": "produceReferenceID",
              "type": "bytes"
            },
            {
              "internalType": "bytes",
              "name": "produceName",
              "type": "bytes"
            },
            {
              "internalType": "uint256",
              "name": "dateOfBirth",
              "type": "uint256"
            },
            {
              "internalType": "address",
              "name": "producer",
              "type": "address"
            }
          ],
          "internalType": "struct FoodChainEcosystem.produce[]",
          "name": "",
          "type": "tuple[]"
        }
      ],
      "payable": false,
      "stateMutability": "view",
      "type": "function"
    },
    {
      "constant": true,
      "inputs": [
        {
          "internalType": "uint256",
          "name": "packageID",
          "type": "uint256"
        }
      ],
      "name": "getPackageOwner",
      "outputs": [
        {
          "internalType": "address",
          "name": "",
          "type": "address"
        }
      ],
      "payable": false,
      "stateMutability": "view",
      "type": "function"
    },
    {
      "constant": true,
      "inputs": [
        {
          "internalType": "uint256",
          "name": "packageID",
          "type": "uint256"
        },
        {
          "internalType": "address",
          "name": "owner",
          "type": "address"
        }
      ],
      "name": "getPackageIndex",
      "outputs": [
        {
          "internalType": "uint256",
          "name": "",
          "type": "uint256"
        }
      ],
      "payable": false,
      "stateMutability": "view",
      "type": "function"
    },
    {
      "constant": true,
      "inputs": [
        {
          "internalType": "uint256",
          "name": "index",
          "type": "uint256"
        },
        {
          "internalType": "address",
          "name": "owner",
          "type": "address"
        }
      ],
      "name": "getPackageIDFromIndex",
      "outputs": [
        {
          "internalType": "uint256",
          "name": "",
          "type": "uint256"
        }
      ],
      "payable": false,
      "stateMutability": "view",
      "type": "function"
    },
    {
      "constant": true,
      "inputs": [
        {
          "internalType": "address",
          "name": "ownerAddress",
          "type": "address"
        }
      ],
      "name": "getPackagesOwned",
      "outputs": [
        {
          "components": [
            {
              "internalType": "bytes",
              "name": "packageReferenceID",
              "type": "bytes"
            },
            {
              "internalType": "bytes",
              "name": "packageName",
              "type": "bytes"
            },
            {
              "internalType": "bytes",
              "name": "packagedCategory",
              "type": "bytes"
            },
            {
              "internalType": "uint256",
              "name": "packagedWeight",
              "type": "uint256"
            },
            {
              "internalType": "uint256",
              "name": "packagedDate",
              "type": "uint256"
            },
            {
              "internalType": "uint256",
              "name": "bestBefore",
              "type": "uint256"
            },
            {
              "internalType": "address",
              "name": "processor",
              "type": "address"
            },
            {
              "internalType": "address",
              "name": "retailer",
              "type": "address"
            },
            {
              "internalType": "uint256",
              "name": "assetID",
              "type": "uint256"
            }
          ],
          "internalType": "struct FoodChainEcosystem.package[]",
          "name": "",
          "type": "tuple[]"
        }
      ],
      "payable": false,
      "stateMutability": "view",
      "type": "function"
    },
    {
      "constant": true,
      "inputs": [],
      "name": "getTotalProduce",
      "outputs": [
        {
          "internalType": "uint256",
          "name": "",
          "type": "uint256"
        }
      ],
      "payable": false,
      "stateMutability": "view",
      "type": "function"
    },
    {
      "constant": true,
      "inputs": [],
      "name": "getTotalPackage",
      "outputs": [
        {
          "internalType": "uint256",
          "name": "",
          "type": "uint256"
        }
      ],
      "payable": false,
      "stateMutability": "view",
      "type": "function"
    }
  ],
  "bytecode": "0x608060405234801561001057600080fd5b50336000806101000a81548173ffffffffffffffffffffffffffffffffffffffff021916908373ffffffffffffffffffffffffffffffffffffffff16021790555061563f80620000616000396000f3fe608060405234801561001057600080fd5b50600436106101425760003560e01c8063a471b51f116100b8578063c4bf341b1161007c578063c4bf341b146103bf578063d2420596146103db578063d304a3d9146103f7578063d904a36114610427578063e2729fac14610443578063eb7d08a61461047357610142565b8063a471b51f146102e3578063a83006da14610313578063a9f4c5a91461032f578063b09ad1161461035f578063bec9b2981461038f57610142565b806360d2d3cd1161010a57806360d2d3cd146101fb5780636cb70b3c146102195780636d8dc628146102495780638345750b146102795780639495eeda14610295578063a11a708f146102c557610142565b8063074a157e1461014757806335569329146101635780633c530ace1461017f578063513c89ea1461019b5780635d6637a7146101cb575b600080fd5b610161600480360361015c91908101906148bd565b6104a3565b005b61017d60048036036101789190810190614965565b6105c6565b005b610199600480360361019491908101906148bd565b610e2c565b005b6101b560048036036101b091908101906148bd565b610f4f565b6040516101c29190615405565b60405180910390f35b6101e560048036036101e0919081019061498e565b610f9b565b6040516101f2919061525f565b60405180910390f35b610203611099565b6040516102109190615405565b60405180910390f35b610233600480360361022e919081019061498e565b6110a3565b6040516102409190615405565b60405180910390f35b610263600480360361025e9190810190614965565b6110fe565b60405161027091906153e3565b60405180910390f35b610293600480360361028e919081019061498e565b6113a3565b005b6102af60048036036102aa919081019061498e565b612336565b6040516102bc9190615405565b60405180910390f35b6102cd612391565b6040516102da9190615405565b60405180910390f35b6102fd60048036036102f891908101906148bd565b61239b565b60405161030a919061521b565b60405180910390f35b61032d600480360361032891908101906148bd565b6126f4565b005b61034960048036036103449190810190614965565b612817565b6040516103569190615200565b60405180910390f35b610379600480360361037491908101906148bd565b612854565b6040516103869190615405565b60405180910390f35b6103a960048036036103a4919081019061498e565b6128a0565b6040516103b69190615405565b60405180910390f35b6103d960048036036103d491908101906149ca565b6128fb565b005b6103f560048036036103f091908101906148e6565b612f98565b005b610411600480360361040c919081019061498e565b613452565b60405161041e9190615405565b60405180910390f35b610441600480360361043c919081019061498e565b6134ad565b005b61045d60048036036104589190810190614965565b61410d565b60405161046a9190615200565b60405180910390f35b61048d600480360361048891908101906148bd565b61414a565b60405161049a919061523d565b60405180910390f35b6000809054906101000a900473ffffffffffffffffffffffffffffffffffffffff1673ffffffffffffffffffffffffffffffffffffffff163373ffffffffffffffffffffffffffffffffffffffff1614610532576040517f08c379a0000000000000000000000000000000000000000000000000000000008152600401610529906153a3565b60405180910390fd5b60018060008373ffffffffffffffffffffffffffffffffffffffff1673ffffffffffffffffffffffffffffffffffffffff16815260200190815260200160002060000160016101000a81548160ff0219169083151502179055507fbdf4b30c98e1d79a8aeb6813119a4c187bed83e5511fbdebe042a1739d3d95a4816040516105bb9190615200565b60405180910390a150565b60011515600160003373ffffffffffffffffffffffffffffffffffffffff1673ffffffffffffffffffffffffffffffffffffffff16815260200190815260200160002060000160029054906101000a900460ff1615151461065c576040517f08c379a000000000000000000000000000000000000000000000000000000000815260040161065390615323565b60405180910390fd5b80600180146106a0576040517f08c379a0000000000000000000000000000000000000000000000000000000008152600401610697906152a3565b60405180910390fd5b813373ffffffffffffffffffffffffffffffffffffffff166003600083815260200190815260200160002060009054906101000a900473ffffffffffffffffffffffffffffffffffffffff1673ffffffffffffffffffffffffffffffffffffffff1614610742576040517f08c379a000000000000000000000000000000000000000000000000000000000815260040161073990615383565b60405180910390fd5b60006003600085815260200190815260200160002060006101000a81548173ffffffffffffffffffffffffffffffffffffffff021916908373ffffffffffffffffffffffffffffffffffffffff1602179055506000600960003373ffffffffffffffffffffffffffffffffffffffff1673ffffffffffffffffffffffffffffffffffffffff1681526020019081526020016000208054905090506000600a60003373ffffffffffffffffffffffffffffffffffffffff1673ffffffffffffffffffffffffffffffffffffffff16815260200190815260200160002060008681526020019081526020016000205490506000600b60003373ffffffffffffffffffffffffffffffffffffffff1673ffffffffffffffffffffffffffffffffffffffff16815260200190815260200160002060008481526020019081526020016000205490506000600b60003373ffffffffffffffffffffffffffffffffffffffff1673ffffffffffffffffffffffffffffffffffffffff16815260200190815260200160002060008581526020019081526020016000208190555080600b60003373ffffffffffffffffffffffffffffffffffffffff1673ffffffffffffffffffffffffffffffffffffffff16815260200190815260200160002060008481526020019081526020016000208190555081600a60003373ffffffffffffffffffffffffffffffffffffffff1673ffffffffffffffffffffffffffffffffffffffff1681526020019081526020016000206000838152602001908152602001600020819055506000600a60003373ffffffffffffffffffffffffffffffffffffffff1673ffffffffffffffffffffffffffffffffffffffff168152602001908152602001600020600088815260200190815260200160002081905550600960003373ffffffffffffffffffffffffffffffffffffffff1673ffffffffffffffffffffffffffffffffffffffff1681526020019081526020016000206001840381548110610a2957fe5b9060005260206000209060090201600960003373ffffffffffffffffffffffffffffffffffffffff1673ffffffffffffffffffffffffffffffffffffffff1681526020019081526020016000206001840381548110610a8457fe5b906000526020600020906009020160008201816000019080546001816001161561010002031660029004610ab9929190614486565b5060018201816001019080546001816001161561010002031660029004610ae1929190614486565b5060028201816002019080546001816001161561010002031660029004610b09929190614486565b506003820154816003015560048201548160040155600582015481600501556006820160009054906101000a900473ffffffffffffffffffffffffffffffffffffffff168160060160006101000a81548173ffffffffffffffffffffffffffffffffffffffff021916908373ffffffffffffffffffffffffffffffffffffffff1602179055506007820160009054906101000a900473ffffffffffffffffffffffffffffffffffffffff168160070160006101000a81548173ffffffffffffffffffffffffffffffffffffffff021916908373ffffffffffffffffffffffffffffffffffffffff16021790555060088201548160080155905050600960003373ffffffffffffffffffffffffffffffffffffffff1673ffffffffffffffffffffffffffffffffffffffff1681526020019081526020016000206001840381548110610c5057fe5b906000526020600020906009020160008082016000610c6f919061450d565b600182016000610c7f919061450d565b600282016000610c8f919061450d565b6003820160009055600482016000905560058201600090556006820160006101000a81549073ffffffffffffffffffffffffffffffffffffffff02191690556007820160006101000a81549073ffffffffffffffffffffffffffffffffffffffff021916905560088201600090555050600960003373ffffffffffffffffffffffffffffffffffffffff1673ffffffffffffffffffffffffffffffffffffffff168152602001908152602001600020805480919060019003610d519190614555565b50610da760018060003373ffffffffffffffffffffffffffffffffffffffff1673ffffffffffffffffffffffffffffffffffffffff1681526020019081526020016000206002015461438c90919063ffffffff16565b600160003373ffffffffffffffffffffffffffffffffffffffff1673ffffffffffffffffffffffffffffffffffffffff168152602001908152602001600020600201819055507f55d51fa0232ae9e52d7109fa2407f654f175ce85ae1da2d6fdea65c13bcd54d286604051610e1c9190615405565b60405180910390a1505050505050565b6000809054906101000a900473ffffffffffffffffffffffffffffffffffffffff1673ffffffffffffffffffffffffffffffffffffffff163373ffffffffffffffffffffffffffffffffffffffff1614610ebb576040517f08c379a0000000000000000000000000000000000000000000000000000000008152600401610eb2906153a3565b60405180910390fd5b60018060008373ffffffffffffffffffffffffffffffffffffffff1673ffffffffffffffffffffffffffffffffffffffff16815260200190815260200160002060000160006101000a81548160ff0219169083151502179055507f121963ccfbfe2fa69d35b8067af6f81fcc3d2158fbcefdbb8e6d6f10beb394f481604051610f449190615200565b60405180910390a150565b6000600960008373ffffffffffffffffffffffffffffffffffffffff1673ffffffffffffffffffffffffffffffffffffffff168152602001908152602001600020805490509050919050565b6060600660008373ffffffffffffffffffffffffffffffffffffffff1673ffffffffffffffffffffffffffffffffffffffff1681526020019081526020016000208381548110610fe757fe5b90600052602060002090600402016001018054600181600116156101000203166002900480601f01602080910402602001604051908101604052809291908181526020018280546001816001161561010002031660029004801561108c5780601f106110615761010080835404028352916020019161108c565b820191906000526020600020905b81548152906001019060200180831161106f57829003601f168201915b5050505050905092915050565b6000600c54905090565b6000600860008373ffffffffffffffffffffffffffffffffffffffff1673ffffffffffffffffffffffffffffffffffffffff168152602001908152602001600020600084815260200190815260200160002054905092915050565b611106614587565b60006002600084815260200190815260200160002060009054906101000a900473ffffffffffffffffffffffffffffffffffffffff1690506000600760008373ffffffffffffffffffffffffffffffffffffffff1673ffffffffffffffffffffffffffffffffffffffff1681526020019081526020016000206000858152602001908152602001600020549050600660008373ffffffffffffffffffffffffffffffffffffffff1673ffffffffffffffffffffffffffffffffffffffff16815260200190815260200160002081815481106111dd57fe5b9060005260206000209060040201604051806080016040529081600082018054600181600116156101000203166002900480601f01602080910402602001604051908101604052809291908181526020018280546001816001161561010002031660029004801561128f5780601f106112645761010080835404028352916020019161128f565b820191906000526020600020905b81548152906001019060200180831161127257829003601f168201915b50505050508152602001600182018054600181600116156101000203166002900480601f0160208091040260200160405190810160405280929190818152602001828054600181600116156101000203166002900480156113315780601f1061130657610100808354040283529160200191611331565b820191906000526020600020905b81548152906001019060200180831161131457829003601f168201915b50505050508152602001600282015481526020016003820160009054906101000a900473ffffffffffffffffffffffffffffffffffffffff1673ffffffffffffffffffffffffffffffffffffffff1673ffffffffffffffffffffffffffffffffffffffff168152505092505050919050565b60011515600160003373ffffffffffffffffffffffffffffffffffffffff1673ffffffffffffffffffffffffffffffffffffffff16815260200190815260200160002060000160019054906101000a900460ff16151514611439576040517f08c379a000000000000000000000000000000000000000000000000000000000815260040161143090615343565b60405180910390fd5b813373ffffffffffffffffffffffffffffffffffffffff166003600083815260200190815260200160002060009054906101000a900473ffffffffffffffffffffffffffffffffffffffff1673ffffffffffffffffffffffffffffffffffffffff16146114db576040517f08c379a00000000000000000000000000000000000000000000000000000000081526004016114d290615383565b60405180910390fd5b8160011515600160008373ffffffffffffffffffffffffffffffffffffffff1673ffffffffffffffffffffffffffffffffffffffff16815260200190815260200160002060000160029054906101000a900460ff16151514611572576040517f08c379a000000000000000000000000000000000000000000000000000000000815260040161156990615363565b60405180910390fd5b826003600086815260200190815260200160002060006101000a81548173ffffffffffffffffffffffffffffffffffffffff021916908373ffffffffffffffffffffffffffffffffffffffff1602179055506000600960003373ffffffffffffffffffffffffffffffffffffffff1673ffffffffffffffffffffffffffffffffffffffff1681526020019081526020016000208054905090506000600a60003373ffffffffffffffffffffffffffffffffffffffff1673ffffffffffffffffffffffffffffffffffffffff168152602001908152602001600020600087815260200190815260200160002054905084600960003373ffffffffffffffffffffffffffffffffffffffff1673ffffffffffffffffffffffffffffffffffffffff16815260200190815260200160002060018303815481106116ae57fe5b906000526020600020906009020160070160006101000a81548173ffffffffffffffffffffffffffffffffffffffff021916908373ffffffffffffffffffffffffffffffffffffffff1602179055506117056145c5565b600960003373ffffffffffffffffffffffffffffffffffffffff1673ffffffffffffffffffffffffffffffffffffffff168152602001908152602001600020600183038154811061175257fe5b906000526020600020906009020160405180610120016040529081600082018054600181600116156101000203166002900480601f0160208091040260200160405190810160405280929190818152602001828054600181600116156101000203166002900480156118055780601f106117da57610100808354040283529160200191611805565b820191906000526020600020905b8154815290600101906020018083116117e857829003601f168201915b50505050508152602001600182018054600181600116156101000203166002900480601f0160208091040260200160405190810160405280929190818152602001828054600181600116156101000203166002900480156118a75780601f1061187c576101008083540402835291602001916118a7565b820191906000526020600020905b81548152906001019060200180831161188a57829003601f168201915b50505050508152602001600282018054600181600116156101000203166002900480601f0160208091040260200160405190810160405280929190818152602001828054600181600116156101000203166002900480156119495780601f1061191e57610100808354040283529160200191611949565b820191906000526020600020905b81548152906001019060200180831161192c57829003601f168201915b505050505081526020016003820154815260200160048201548152602001600582015481526020016006820160009054906101000a900473ffffffffffffffffffffffffffffffffffffffff1673ffffffffffffffffffffffffffffffffffffffff1673ffffffffffffffffffffffffffffffffffffffff1681526020016007820160009054906101000a900473ffffffffffffffffffffffffffffffffffffffff1673ffffffffffffffffffffffffffffffffffffffff1673ffffffffffffffffffffffffffffffffffffffff16815260200160088201548152505090506000600b60003373ffffffffffffffffffffffffffffffffffffffff1673ffffffffffffffffffffffffffffffffffffffff16815260200190815260200160002060008581526020019081526020016000205490506000600b60003373ffffffffffffffffffffffffffffffffffffffff1673ffffffffffffffffffffffffffffffffffffffff16815260200190815260200160002060008681526020019081526020016000208190555080600b60003373ffffffffffffffffffffffffffffffffffffffff1673ffffffffffffffffffffffffffffffffffffffff16815260200190815260200160002060008581526020019081526020016000208190555082600a60003373ffffffffffffffffffffffffffffffffffffffff1673ffffffffffffffffffffffffffffffffffffffff1681526020019081526020016000206000838152602001908152602001600020819055506000600a60003373ffffffffffffffffffffffffffffffffffffffff1673ffffffffffffffffffffffffffffffffffffffff16815260200190815260200160002060008a815260200190815260200160002081905550600960003373ffffffffffffffffffffffffffffffffffffffff1673ffffffffffffffffffffffffffffffffffffffff1681526020019081526020016000206001850381548110611c2057fe5b9060005260206000209060090201600960003373ffffffffffffffffffffffffffffffffffffffff1673ffffffffffffffffffffffffffffffffffffffff1681526020019081526020016000206001850381548110611c7b57fe5b906000526020600020906009020160008201816000019080546001816001161561010002031660029004611cb0929190614486565b5060018201816001019080546001816001161561010002031660029004611cd8929190614486565b5060028201816002019080546001816001161561010002031660029004611d00929190614486565b506003820154816003015560048201548160040155600582015481600501556006820160009054906101000a900473ffffffffffffffffffffffffffffffffffffffff168160060160006101000a81548173ffffffffffffffffffffffffffffffffffffffff021916908373ffffffffffffffffffffffffffffffffffffffff1602179055506007820160009054906101000a900473ffffffffffffffffffffffffffffffffffffffff168160070160006101000a81548173ffffffffffffffffffffffffffffffffffffffff021916908373ffffffffffffffffffffffffffffffffffffffff16021790555060088201548160080155905050600960003373ffffffffffffffffffffffffffffffffffffffff1673ffffffffffffffffffffffffffffffffffffffff1681526020019081526020016000206001850381548110611e4757fe5b906000526020600020906009020160008082016000611e66919061450d565b600182016000611e76919061450d565b600282016000611e86919061450d565b6003820160009055600482016000905560058201600090556006820160006101000a81549073ffffffffffffffffffffffffffffffffffffffff02191690556007820160006101000a81549073ffffffffffffffffffffffffffffffffffffffff021916905560088201600090555050600960003373ffffffffffffffffffffffffffffffffffffffff1673ffffffffffffffffffffffffffffffffffffffff168152602001908152602001600020805480919060019003611f489190614555565b506000600960008973ffffffffffffffffffffffffffffffffffffffff1673ffffffffffffffffffffffffffffffffffffffff16815260200190815260200160002080549050905060018101600a60008a73ffffffffffffffffffffffffffffffffffffffff1673ffffffffffffffffffffffffffffffffffffffff1681526020019081526020016000206000600d5481526020019081526020016000208190555088600b60008a73ffffffffffffffffffffffffffffffffffffffff1673ffffffffffffffffffffffffffffffffffffffff168152602001908152602001600020600060018401815260200190815260200160002081905550600960008973ffffffffffffffffffffffffffffffffffffffff1673ffffffffffffffffffffffffffffffffffffffff168152602001908152602001600020839080600181540180825580915050906001820390600052602060002090600902016000909192909190915060008201518160000190805190602001906120c992919061463d565b5060208201518160010190805190602001906120e692919061463d565b50604082015181600201908051906020019061210392919061463d565b50606082015181600301556080820151816004015560a0820151816005015560c08201518160060160006101000a81548173ffffffffffffffffffffffffffffffffffffffff021916908373ffffffffffffffffffffffffffffffffffffffff16021790555060e08201518160070160006101000a81548173ffffffffffffffffffffffffffffffffffffffff021916908373ffffffffffffffffffffffffffffffffffffffff160217905550610100820151816008015550505061221360018060003373ffffffffffffffffffffffffffffffffffffffff1673ffffffffffffffffffffffffffffffffffffffff1681526020019081526020016000206002015461438c90919063ffffffff16565b600160003373ffffffffffffffffffffffffffffffffffffffff1673ffffffffffffffffffffffffffffffffffffffff168152602001908152602001600020600201819055506122ae60018060008b73ffffffffffffffffffffffffffffffffffffffff1673ffffffffffffffffffffffffffffffffffffffff168152602001908152602001600020600201546143d690919063ffffffff16565b600160008a73ffffffffffffffffffffffffffffffffffffffff1673ffffffffffffffffffffffffffffffffffffffff168152602001908152602001600020600201819055507f33613076b1c4316d7b7a5a78ab6abbc6ca1e89111a90a8813dfa348d375b0355896040516123239190615405565b60405180910390a1505050505050505050565b6000600760008373ffffffffffffffffffffffffffffffffffffffff1673ffffffffffffffffffffffffffffffffffffffff168152602001908152602001600020600084815260200190815260200160002054905092915050565b6000600d54905090565b6060600960008373ffffffffffffffffffffffffffffffffffffffff1673ffffffffffffffffffffffffffffffffffffffff168152602001908152602001600020805480602002602001604051908101604052809291908181526020016000905b828210156126e9578382906000526020600020906009020160405180610120016040529081600082018054600181600116156101000203166002900480601f0160208091040260200160405190810160405280929190818152602001828054600181600116156101000203166002900480156124b95780601f1061248e576101008083540402835291602001916124b9565b820191906000526020600020905b81548152906001019060200180831161249c57829003601f168201915b50505050508152602001600182018054600181600116156101000203166002900480601f01602080910402602001604051908101604052809291908181526020018280546001816001161561010002031660029004801561255b5780601f106125305761010080835404028352916020019161255b565b820191906000526020600020905b81548152906001019060200180831161253e57829003601f168201915b50505050508152602001600282018054600181600116156101000203166002900480601f0160208091040260200160405190810160405280929190818152602001828054600181600116156101000203166002900480156125fd5780601f106125d2576101008083540402835291602001916125fd565b820191906000526020600020905b8154815290600101906020018083116125e057829003601f168201915b505050505081526020016003820154815260200160048201548152602001600582015481526020016006820160009054906101000a900473ffffffffffffffffffffffffffffffffffffffff1673ffffffffffffffffffffffffffffffffffffffff1673ffffffffffffffffffffffffffffffffffffffff1681526020016007820160009054906101000a900473ffffffffffffffffffffffffffffffffffffffff1673ffffffffffffffffffffffffffffffffffffffff1673ffffffffffffffffffffffffffffffffffffffff168152602001600882015481525050815260200190600101906123fc565b505050509050919050565b6000809054906101000a900473ffffffffffffffffffffffffffffffffffffffff1673ffffffffffffffffffffffffffffffffffffffff163373ffffffffffffffffffffffffffffffffffffffff1614612783576040517f08c379a000000000000000000000000000000000000000000000000000000000815260040161277a906153a3565b60405180910390fd5b60018060008373ffffffffffffffffffffffffffffffffffffffff1673ffffffffffffffffffffffffffffffffffffffff16815260200190815260200160002060000160026101000a81548160ff0219169083151502179055507f89587cbf8de877929d52ba36e70bd72d5685cfa2c84e706dabf50b224c3a316f8160405161280c9190615200565b60405180910390a150565b60006003600083815260200190815260200160002060009054906101000a900473ffffffffffffffffffffffffffffffffffffffff169050919050565b6000600660008373ffffffffffffffffffffffffffffffffffffffff1673ffffffffffffffffffffffffffffffffffffffff168152602001908152602001600020805490509050919050565b6000600a60008373ffffffffffffffffffffffffffffffffffffffff1673ffffffffffffffffffffffffffffffffffffffff168152602001908152602001600020600084815260200190815260200160002054905092915050565b60011515600160003373ffffffffffffffffffffffffffffffffffffffff1673ffffffffffffffffffffffffffffffffffffffff16815260200190815260200160002060000160019054906101000a900460ff16151514612991576040517f08c379a000000000000000000000000000000000000000000000000000000000815260040161298890615343565b60405180910390fd5b863373ffffffffffffffffffffffffffffffffffffffff166002600083815260200190815260200160002060009054906101000a900473ffffffffffffffffffffffffffffffffffffffff1673ffffffffffffffffffffffffffffffffffffffff1614612a33576040517f08c379a0000000000000000000000000000000000000000000000000000000008152600401612a2a906153c3565b60405180910390fd5b612a3b6145c5565b6040518061012001604052808981526020018881526020018781526020018681526020018581526020018481526020013373ffffffffffffffffffffffffffffffffffffffff168152602001600073ffffffffffffffffffffffffffffffffffffffff1681526020018a81525090508060056000600d5481526020019081526020016000206000820151816000019080519060200190612adc92919061463d565b506020820151816001019080519060200190612af992919061463d565b506040820151816002019080519060200190612b1692919061463d565b50606082015181600301556080820151816004015560a0820151816005015560c08201518160060160006101000a81548173ffffffffffffffffffffffffffffffffffffffff021916908373ffffffffffffffffffffffffffffffffffffffff16021790555060e08201518160070160006101000a81548173ffffffffffffffffffffffffffffffffffffffff021916908373ffffffffffffffffffffffffffffffffffffffff16021790555061010082015181600801559050503360036000600d54815260200190815260200160002060006101000a81548173ffffffffffffffffffffffffffffffffffffffff021916908373ffffffffffffffffffffffffffffffffffffffff1602179055506000600960003373ffffffffffffffffffffffffffffffffffffffff1673ffffffffffffffffffffffffffffffffffffffff16815260200190815260200160002080549050905060018101600a60003373ffffffffffffffffffffffffffffffffffffffff1673ffffffffffffffffffffffffffffffffffffffff1681526020019081526020016000206000600d54815260200190815260200160002081905550600d54600b60003373ffffffffffffffffffffffffffffffffffffffff1673ffffffffffffffffffffffffffffffffffffffff168152602001908152602001600020600060018401815260200190815260200160002081905550600960003373ffffffffffffffffffffffffffffffffffffffff1673ffffffffffffffffffffffffffffffffffffffff16815260200190815260200160002082908060018154018082558091505090600182039060005260206000209060090201600090919290919091506000820151816000019080519060200190612da792919061463d565b506020820151816001019080519060200190612dc492919061463d565b506040820151816002019080519060200190612de192919061463d565b50606082015181600301556080820151816004015560a0820151816005015560c08201518160060160006101000a81548173ffffffffffffffffffffffffffffffffffffffff021916908373ffffffffffffffffffffffffffffffffffffffff16021790555060e08201518160070160006101000a81548173ffffffffffffffffffffffffffffffffffffffff021916908373ffffffffffffffffffffffffffffffffffffffff16021790555061010082015181600801555050507f9159ec84a2e5c34213510966eddb52340436ecf87602e7af724548cbf0d8e944600d54604051612ecd9190615405565b60405180910390a1612eeb6001600d546143d690919063ffffffff16565b600d81905550612f4660018060003373ffffffffffffffffffffffffffffffffffffffff1673ffffffffffffffffffffffffffffffffffffffff168152602001908152602001600020600201546143d690919063ffffffff16565b600160003373ffffffffffffffffffffffffffffffffffffffff1673ffffffffffffffffffffffffffffffffffffffff1681526020019081526020016000206002018190555050505050505050505050565b60011515600160003373ffffffffffffffffffffffffffffffffffffffff1673ffffffffffffffffffffffffffffffffffffffff16815260200190815260200160002060000160009054906101000a900460ff1615151461302e576040517f08c379a0000000000000000000000000000000000000000000000000000000008152600401613025906152c3565b60405180910390fd5b613036614587565b60405180608001604052808581526020018481526020018381526020013373ffffffffffffffffffffffffffffffffffffffff1681525090508060046000600c54815260200190815260200160002060008201518160000190805190602001906130a192919061463d565b5060208201518160010190805190602001906130be92919061463d565b506040820151816002015560608201518160030160006101000a81548173ffffffffffffffffffffffffffffffffffffffff021916908373ffffffffffffffffffffffffffffffffffffffff1602179055509050503360026000600c54815260200190815260200160002060006101000a81548173ffffffffffffffffffffffffffffffffffffffff021916908373ffffffffffffffffffffffffffffffffffffffff1602179055506000600660003373ffffffffffffffffffffffffffffffffffffffff1673ffffffffffffffffffffffffffffffffffffffff16815260200190815260200160002080549050905060018101600760003373ffffffffffffffffffffffffffffffffffffffff1673ffffffffffffffffffffffffffffffffffffffff1681526020019081526020016000206000600c54815260200190815260200160002081905550600c54600860003373ffffffffffffffffffffffffffffffffffffffff1673ffffffffffffffffffffffffffffffffffffffff168152602001908152602001600020600060018401815260200190815260200160002081905550600660003373ffffffffffffffffffffffffffffffffffffffff1673ffffffffffffffffffffffffffffffffffffffff168152602001908152602001600020829080600181540180825580915050906001820390600052602060002090600402016000909192909190915060008201518160000190805190602001906132e992919061463d565b50602082015181600101908051906020019061330692919061463d565b506040820151816002015560608201518160030160006101000a81548173ffffffffffffffffffffffffffffffffffffffff021916908373ffffffffffffffffffffffffffffffffffffffff1602179055505050507f13f8a2a87e6b15399440c6f547053a23fd2585bd2992004282ab02a12b0408a5600c5460405161338c9190615405565b60405180910390a16133aa6001600c546143d690919063ffffffff16565b600c8190555061340560018060003373ffffffffffffffffffffffffffffffffffffffff1673ffffffffffffffffffffffffffffffffffffffff168152602001908152602001600020600101546143d690919063ffffffff16565b600160003373ffffffffffffffffffffffffffffffffffffffff1673ffffffffffffffffffffffffffffffffffffffff168152602001908152602001600020600101819055505050505050565b6000600b60008373ffffffffffffffffffffffffffffffffffffffff1673ffffffffffffffffffffffffffffffffffffffff168152602001908152602001600020600084815260200190815260200160002054905092915050565b60011515600160003373ffffffffffffffffffffffffffffffffffffffff1673ffffffffffffffffffffffffffffffffffffffff16815260200190815260200160002060000160009054906101000a900460ff16151514613543576040517f08c379a000000000000000000000000000000000000000000000000000000000815260040161353a906152c3565b60405180910390fd5b813373ffffffffffffffffffffffffffffffffffffffff166002600083815260200190815260200160002060009054906101000a900473ffffffffffffffffffffffffffffffffffffffff1673ffffffffffffffffffffffffffffffffffffffff16146135e5576040517f08c379a00000000000000000000000000000000000000000000000000000000081526004016135dc906153c3565b60405180910390fd5b8160011515600160008373ffffffffffffffffffffffffffffffffffffffff1673ffffffffffffffffffffffffffffffffffffffff16815260200190815260200160002060000160019054906101000a900460ff1615151461367c576040517f08c379a0000000000000000000000000000000000000000000000000000000008152600401613673906152e3565b60405180910390fd5b826002600086815260200190815260200160002060006101000a81548173ffffffffffffffffffffffffffffffffffffffff021916908373ffffffffffffffffffffffffffffffffffffffff1602179055506000600660003373ffffffffffffffffffffffffffffffffffffffff1673ffffffffffffffffffffffffffffffffffffffff1681526020019081526020016000208054905090506000600760003373ffffffffffffffffffffffffffffffffffffffff1673ffffffffffffffffffffffffffffffffffffffff1681526020019081526020016000206000878152602001908152602001600020549050613772614587565b600660003373ffffffffffffffffffffffffffffffffffffffff1673ffffffffffffffffffffffffffffffffffffffff16815260200190815260200160002060018303815481106137bf57fe5b9060005260206000209060040201604051806080016040529081600082018054600181600116156101000203166002900480601f0160208091040260200160405190810160405280929190818152602001828054600181600116156101000203166002900480156138715780601f1061384657610100808354040283529160200191613871565b820191906000526020600020905b81548152906001019060200180831161385457829003601f168201915b50505050508152602001600182018054600181600116156101000203166002900480601f0160208091040260200160405190810160405280929190818152602001828054600181600116156101000203166002900480156139135780601f106138e857610100808354040283529160200191613913565b820191906000526020600020905b8154815290600101906020018083116138f657829003601f168201915b50505050508152602001600282015481526020016003820160009054906101000a900473ffffffffffffffffffffffffffffffffffffffff1673ffffffffffffffffffffffffffffffffffffffff1673ffffffffffffffffffffffffffffffffffffffff168152505090506000600860003373ffffffffffffffffffffffffffffffffffffffff1673ffffffffffffffffffffffffffffffffffffffff16815260200190815260200160002060008581526020019081526020016000205490506000600860003373ffffffffffffffffffffffffffffffffffffffff1673ffffffffffffffffffffffffffffffffffffffff16815260200190815260200160002060008681526020019081526020016000208190555080600860003373ffffffffffffffffffffffffffffffffffffffff1673ffffffffffffffffffffffffffffffffffffffff16815260200190815260200160002060008581526020019081526020016000208190555082600760003373ffffffffffffffffffffffffffffffffffffffff1673ffffffffffffffffffffffffffffffffffffffff1681526020019081526020016000206000838152602001908152602001600020819055506000600760003373ffffffffffffffffffffffffffffffffffffffff1673ffffffffffffffffffffffffffffffffffffffff16815260200190815260200160002060008a815260200190815260200160002081905550600660003373ffffffffffffffffffffffffffffffffffffffff1673ffffffffffffffffffffffffffffffffffffffff1681526020019081526020016000206001850381548110613b7657fe5b9060005260206000209060040201600660003373ffffffffffffffffffffffffffffffffffffffff1673ffffffffffffffffffffffffffffffffffffffff1681526020019081526020016000206001850381548110613bd157fe5b906000526020600020906004020160008201816000019080546001816001161561010002031660029004613c06929190614486565b5060018201816001019080546001816001161561010002031660029004613c2e929190614486565b50600282015481600201556003820160009054906101000a900473ffffffffffffffffffffffffffffffffffffffff168160030160006101000a81548173ffffffffffffffffffffffffffffffffffffffff021916908373ffffffffffffffffffffffffffffffffffffffff160217905550905050600660003373ffffffffffffffffffffffffffffffffffffffff1673ffffffffffffffffffffffffffffffffffffffff1681526020019081526020016000206001850381548110613cf057fe5b906000526020600020906004020160008082016000613d0f919061450d565b600182016000613d1f919061450d565b60028201600090556003820160006101000a81549073ffffffffffffffffffffffffffffffffffffffff02191690555050600660003373ffffffffffffffffffffffffffffffffffffffff1673ffffffffffffffffffffffffffffffffffffffff168152602001908152602001600020805480919060019003613da291906146bd565b506000600660008973ffffffffffffffffffffffffffffffffffffffff1673ffffffffffffffffffffffffffffffffffffffff16815260200190815260200160002080549050905060018101600760008a73ffffffffffffffffffffffffffffffffffffffff1673ffffffffffffffffffffffffffffffffffffffff1681526020019081526020016000206000600c5481526020019081526020016000208190555088600860008a73ffffffffffffffffffffffffffffffffffffffff1673ffffffffffffffffffffffffffffffffffffffff168152602001908152602001600020600060018401815260200190815260200160002081905550600660008973ffffffffffffffffffffffffffffffffffffffff1673ffffffffffffffffffffffffffffffffffffffff16815260200190815260200160002083908060018154018082558091505090600182039060005260206000209060040201600090919290919091506000820151816000019080519060200190613f2392919061463d565b506020820151816001019080519060200190613f4092919061463d565b506040820151816002015560608201518160030160006101000a81548173ffffffffffffffffffffffffffffffffffffffff021916908373ffffffffffffffffffffffffffffffffffffffff160217905550505050613fea60018060003373ffffffffffffffffffffffffffffffffffffffff1673ffffffffffffffffffffffffffffffffffffffff1681526020019081526020016000206001015461438c90919063ffffffff16565b600160003373ffffffffffffffffffffffffffffffffffffffff1673ffffffffffffffffffffffffffffffffffffffff1681526020019081526020016000206001018190555061408560018060008b73ffffffffffffffffffffffffffffffffffffffff1673ffffffffffffffffffffffffffffffffffffffff168152602001908152602001600020600101546143d690919063ffffffff16565b600160008a73ffffffffffffffffffffffffffffffffffffffff1673ffffffffffffffffffffffffffffffffffffffff168152602001908152602001600020600101819055507f2febbfd0fbd68e2ba99226a3657a2b8845cba5b1c9f98da408c0125369e439fb896040516140fa9190615405565b60405180910390a1505050505050505050565b60006002600083815260200190815260200160002060009054906101000a900473ffffffffffffffffffffffffffffffffffffffff169050919050565b6060600660008373ffffffffffffffffffffffffffffffffffffffff1673ffffffffffffffffffffffffffffffffffffffff168152602001908152602001600020805480602002602001604051908101604052809291908181526020016000905b828210156143815783829060005260206000209060040201604051806080016040529081600082018054600181600116156101000203166002900480601f0160208091040260200160405190810160405280929190818152602001828054600181600116156101000203166002900480156142675780601f1061423c57610100808354040283529160200191614267565b820191906000526020600020905b81548152906001019060200180831161424a57829003601f168201915b50505050508152602001600182018054600181600116156101000203166002900480601f0160208091040260200160405190810160405280929190818152602001828054600181600116156101000203166002900480156143095780601f106142de57610100808354040283529160200191614309565b820191906000526020600020905b8154815290600101906020018083116142ec57829003601f168201915b50505050508152602001600282015481526020016003820160009054906101000a900473ffffffffffffffffffffffffffffffffffffffff1673ffffffffffffffffffffffffffffffffffffffff1673ffffffffffffffffffffffffffffffffffffffff1681525050815260200190600101906141ab565b505050509050919050565b60006143ce83836040518060400160405280601e81526020017f536166654d6174683a207375627472616374696f6e206f766572666c6f77000081525061442b565b905092915050565b600080828401905083811015614421576040517f08c379a000000000000000000000000000000000000000000000000000000000815260040161441890615303565b60405180910390fd5b8091505092915050565b6000838311158290614473576040517f08c379a000000000000000000000000000000000000000000000000000000000815260040161446a9190615281565b60405180910390fd5b5060008385039050809150509392505050565b828054600181600116156101000203166002900490600052602060002090601f016020900481019282601f106144bf57805485556144fc565b828001600101855582156144fc57600052602060002091601f016020900482015b828111156144fb5782548255916001019190600101906144e0565b5b50905061450991906146ef565b5090565b50805460018160011615610100020316600290046000825580601f106145335750614552565b601f01602090049060005260206000209081019061455191906146ef565b5b50565b815481835581811115614582576009028160090283600052602060002091820191016145819190614714565b5b505050565b6040518060800160405280606081526020016060815260200160008152602001600073ffffffffffffffffffffffffffffffffffffffff1681525090565b604051806101200160405280606081526020016060815260200160608152602001600081526020016000815260200160008152602001600073ffffffffffffffffffffffffffffffffffffffff168152602001600073ffffffffffffffffffffffffffffffffffffffff168152602001600081525090565b828054600181600116156101000203166002900490600052602060002090601f016020900481019282601f1061467e57805160ff19168380011785556146ac565b828001600101855582156146ac579182015b828111156146ab578251825591602001919060010190614690565b5b5090506146b991906146ef565b5090565b8154818355818111156146ea576004028160040283600052602060002091820191016146e991906147d1565b5b505050565b61471191905b8082111561470d5760008160009055506001016146f5565b5090565b90565b6147ce91905b808211156147ca5760008082016000614733919061450d565b600182016000614743919061450d565b600282016000614753919061450d565b6003820160009055600482016000905560058201600090556006820160006101000a81549073ffffffffffffffffffffffffffffffffffffffff02191690556007820160006101000a81549073ffffffffffffffffffffffffffffffffffffffff021916905560088201600090555060090161471a565b5090565b90565b61483c91905b8082111561483857600080820160006147f0919061450d565b600182016000614800919061450d565b60028201600090556003820160006101000a81549073ffffffffffffffffffffffffffffffffffffffff0219169055506004016147d7565b5090565b90565b60008135905061484e816155ce565b92915050565b600082601f83011261486557600080fd5b81356148786148738261544d565b615420565b9150808252602083016020830185838301111561489457600080fd5b61489f83828461557b565b50505092915050565b6000813590506148b7816155e5565b92915050565b6000602082840312156148cf57600080fd5b60006148dd8482850161483f565b91505092915050565b6000806000606084860312156148fb57600080fd5b600084013567ffffffffffffffff81111561491557600080fd5b61492186828701614854565b935050602084013567ffffffffffffffff81111561493e57600080fd5b61494a86828701614854565b925050604061495b868287016148a8565b9150509250925092565b60006020828403121561497757600080fd5b6000614985848285016148a8565b91505092915050565b600080604083850312156149a157600080fd5b60006149af858286016148a8565b92505060206149c08582860161483f565b9150509250929050565b600080600080600080600060e0888a0312156149e557600080fd5b60006149f38a828b016148a8565b975050602088013567ffffffffffffffff811115614a1057600080fd5b614a1c8a828b01614854565b965050604088013567ffffffffffffffff811115614a3957600080fd5b614a458a828b01614854565b955050606088013567ffffffffffffffff811115614a6257600080fd5b614a6e8a828b01614854565b9450506080614a7f8a828b016148a8565b93505060a0614a908a828b016148a8565b92505060c0614aa18a828b016148a8565b91505092959891949750929550565b6000614abc838361503b565b905092915050565b6000614ad08383615178565b905092915050565b614ae18161553f565b82525050565b614af08161553f565b82525050565b6000614b0182615499565b614b0b81856154ea565b935083602082028501614b1d85615479565b8060005b85811015614b595784840389528151614b3a8582614ab0565b9450614b45836154d0565b925060208a01995050600181019050614b21565b50829750879550505050505092915050565b6000614b76826154a4565b614b8081856154fb565b935083602082028501614b9285615489565b8060005b85811015614bce5784840389528151614baf8582614ac4565b9450614bba836154dd565b925060208a01995050600181019050614b96565b50829750879550505050505092915050565b6000614beb826154ba565b614bf5818561551d565b9350614c0581856020860161558a565b614c0e816155bd565b840191505092915050565b6000614c24826154af565b614c2e818561550c565b9350614c3e81856020860161558a565b614c47816155bd565b840191505092915050565b6000614c5d826154c5565b614c67818561552e565b9350614c7781856020860161558a565b614c80816155bd565b840191505092915050565b6000614c9860128361552e565b91507f5061636b61676520697320696e76616c696400000000000000000000000000006000830152602082019050919050565b6000614cd860378361552e565b91507f4f6e6c7920726567697374657265642070726f6475636572732068617665206160008301527f636365737320746f20746869732066756e6374696f6e210000000000000000006020830152604082019050919050565b6000614d3e602b8361552e565b91507f4c69737465642041646472657373206973206e6f74207265676973746572656460008301527f2070726f636573736f72210000000000000000000000000000000000000000006020830152604082019050919050565b6000614da4601b8361552e565b91507f536166654d6174683a206164646974696f6e206f766572666c6f7700000000006000830152602082019050919050565b6000614de460378361552e565b91507f4f6e6c7920726567697374657265642072657461696c6572732068617665206160008301527f636365737320746f20746869732066756e6374696f6e210000000000000000006020830152604082019050919050565b6000614e4a60388361552e565b91507f4f6e6c7920726567697374657265642070726f636573736f727320686176652060008301527f61636365737320746f20746869732066756e6374696f6e2100000000000000006020830152604082019050919050565b6000614eb0602a8361552e565b91507f4c69737465642041646472657373206973206e6f74207265676973746572656460008301527f2072657461696c657221000000000000000000000000000000000000000000006020830152604082019050919050565b6000614f1660368361552e565b91507f4f6e6c79206f776e6572206f6620746865207061636b6167652068617320616360008301527f6365737320746f20746869732066756e6374696f6e21000000000000000000006020830152604082019050919050565b6000614f7c60318361552e565b91507f4f6e6c7920636f6e7472616374206f776e65722068617665206163636573732060008301527f746f20746869732066756e6374696f6e210000000000000000000000000000006020830152604082019050919050565b6000614fe260368361552e565b91507f4f6e6c79206f776e6572206f66207468652070726f647563652068617320616360008301527f6365737320746f20746869732066756e6374696f6e21000000000000000000006020830152604082019050919050565b60006101208301600083015184820360008601526150598282614c19565b915050602083015184820360208601526150738282614c19565b9150506040830151848203604086015261508d8282614c19565b91505060608301516150a260608601826151e2565b5060808301516150b560808601826151e2565b5060a08301516150c860a08601826151e2565b5060c08301516150db60c0860182614ad8565b5060e08301516150ee60e0860182614ad8565b506101008301516151036101008601826151e2565b508091505092915050565b6000608083016000830151848203600086015261512b8282614c19565b915050602083015184820360208601526151458282614c19565b915050604083015161515a60408601826151e2565b50606083015161516d6060860182614ad8565b508091505092915050565b600060808301600083015184820360008601526151958282614c19565b915050602083015184820360208601526151af8282614c19565b91505060408301516151c460408601826151e2565b5060608301516151d76060860182614ad8565b508091505092915050565b6151eb81615571565b82525050565b6151fa81615571565b82525050565b60006020820190506152156000830184614ae7565b92915050565b600060208201905081810360008301526152358184614af6565b905092915050565b600060208201905081810360008301526152578184614b6b565b905092915050565b600060208201905081810360008301526152798184614be0565b905092915050565b6000602082019050818103600083015261529b8184614c52565b905092915050565b600060208201905081810360008301526152bc81614c8b565b9050919050565b600060208201905081810360008301526152dc81614ccb565b9050919050565b600060208201905081810360008301526152fc81614d31565b9050919050565b6000602082019050818103600083015261531c81614d97565b9050919050565b6000602082019050818103600083015261533c81614dd7565b9050919050565b6000602082019050818103600083015261535c81614e3d565b9050919050565b6000602082019050818103600083015261537c81614ea3565b9050919050565b6000602082019050818103600083015261539c81614f09565b9050919050565b600060208201905081810360008301526153bc81614f6f565b9050919050565b600060208201905081810360008301526153dc81614fd5565b9050919050565b600060208201905081810360008301526153fd818461510e565b905092915050565b600060208201905061541a60008301846151f1565b92915050565b6000604051905081810181811067ffffffffffffffff8211171561544357600080fd5b8060405250919050565b600067ffffffffffffffff82111561546457600080fd5b601f19601f8301169050602081019050919050565b6000819050602082019050919050565b6000819050602082019050919050565b600081519050919050565b600081519050919050565b600081519050919050565b600081519050919050565b600081519050919050565b6000602082019050919050565b6000602082019050919050565b600082825260208201905092915050565b600082825260208201905092915050565b600082825260208201905092915050565b600082825260208201905092915050565b600082825260208201905092915050565b600061554a82615551565b9050919050565b600073ffffffffffffffffffffffffffffffffffffffff82169050919050565b6000819050919050565b82818337600083830152505050565b60005b838110156155a857808201518184015260208101905061558d565b838111156155b7576000848401525b50505050565b6000601f19601f8301169050919050565b6155d78161553f565b81146155e257600080fd5b50565b6155ee81615571565b81146155f957600080fd5b5056fea365627a7a723158200184d0929b35d2f1eb7bd9af15aab7ea5c6b4c8c0daa8cf2d4e0a8cae935cfd56c6578706572696d656e74616cf564736f6c63430005100040",
  "source": "pragma solidity ^0.5.0;\r\npragma experimental ABIEncoderV2;\r\n\r\nimport \"../node_modules/@openzeppelin/contracts/Math/SafeMath.sol\";\r\nimport \"../node_modules/@openzeppelin/contracts/utils/Address.sol\";\r\n\r\ncontract FoodChainEcosystem {\r\n    using SafeMath for uint;\r\n    using Address for address;\r\n    address contractOwner;\r\n\r\n    constructor() public { \r\n        contractOwner = msg.sender;\r\n    }\r\n\r\n    struct userInformation {\r\n        bool isProducer;\r\n        bool isProcessor;\r\n        bool isRetailer;\r\n        uint256 produceQuantity;\r\n        uint256 packageQuantity;\r\n    }\r\n\r\n    mapping(address => userInformation) private _userInformations;\r\n    event RegisteredProducer(address producerAddress);\r\n    event RegisteredProcessor(address processorAddress);\r\n    event RegisteredRetailer(address retailerAddress);\r\n\r\n    modifier isContractOwner() {\r\n        require(msg.sender == contractOwner, \"Only contract owner have access to this function!\");\r\n        _;\r\n    }\r\n\r\n    modifier isProducer() {\r\n        require(_userInformations[msg.sender].isProducer == true, \"Only registered producers have access to this function!\");\r\n        _;\r\n    }\r\n\r\n    modifier isProcessor() {\r\n        require(_userInformations[msg.sender].isProcessor == true, \"Only registered processors have access to this function!\");\r\n        _;\r\n    }\r\n\r\n    modifier isRetailer() {\r\n        require(_userInformations[msg.sender].isRetailer == true, \"Only registered retailers have access to this function!\");\r\n        _;\r\n    }\r\n\r\n    modifier isValidPackage(uint256 packageID) {\r\n        require(1 == 1, \"Package is invalid\");\r\n        _;\r\n    }\r\n\r\n    modifier isProcessorAddress(address processor) {\r\n        require(_userInformations[processor].isProcessor == true, \"Listed Address is not registered processor!\");\r\n        _;\r\n    }\r\n\r\n    modifier isRetailerAddress(address processor) {\r\n        require(_userInformations[processor].isRetailer == true, \"Listed Address is not registered retailer!\");\r\n        _;\r\n    }\r\n\r\n    modifier isProduceOwner(uint256 produceID) {\r\n        require(_produceOwner[produceID] == msg.sender, \"Only owner of the produce has access to this function!\");\r\n        _;\r\n    }\r\n\r\n    modifier isPackageOwner(uint256 packageID) {\r\n        require(_packageOwner[packageID] == msg.sender, \"Only owner of the package has access to this function!\");\r\n        _;\r\n    }\r\n\r\n    function registerProducer(address producerAddress) public isContractOwner() {\r\n        _userInformations[producerAddress].isProducer = true;\r\n        emit RegisteredProducer(producerAddress);\r\n    }\r\n\r\n    function registerProcessor(address processorAddress) public isContractOwner() {\r\n        _userInformations[processorAddress].isProcessor = true;\r\n        emit RegisteredProcessor(processorAddress);\r\n    }\r\n\r\n    function registerRetailer(address retailerAddress) public isContractOwner() {\r\n        _userInformations[retailerAddress].isRetailer = true;\r\n        emit RegisteredRetailer(retailerAddress);\r\n    }\r\n\r\n    struct produce {\r\n        bytes produceReferenceID;\r\n        bytes produceName;\r\n        uint dateOfBirth;\r\n        address producer;\r\n    }\r\n\r\n    struct package {\r\n        bytes packageReferenceID;\r\n        bytes packageName;\r\n        bytes packagedCategory;\r\n        uint packagedWeight;\r\n        uint packagedDate;\r\n        uint bestBefore;\r\n        address processor;\r\n        address retailer;\r\n        uint256 assetID;\r\n    }\r\n\r\n    mapping (uint256 => address) private _produceOwner;\r\n    mapping (uint256 => address) private _packageOwner;\r\n\r\n    mapping(uint256 => produce) private _produces;\r\n    mapping(uint256 => package) private _packages;\r\n\r\n    mapping (address => produce[]) private _ownedProduceList;\r\n    // maps to address to produce ID to index\r\n    mapping(address => mapping(uint => uint)) private _indexOfProduceList;\r\n    // maps to address to index to produce ID\r\n    mapping(address => mapping(uint => uint)) private _produceIDOfIndexList;\r\n\r\n    mapping (address => package[]) private _ownedPackageList;\r\n    mapping(address => mapping(uint => uint)) private _indexOfPackageList;\r\n    mapping(address => mapping(uint => uint)) private _packageIDOfIndexList;\r\n\r\n    event CreatedProduce(uint256 produceID);\r\n    event ProcessedProduce(uint256 produceID);\r\n    event CreatedPackage(uint256 packageID);\r\n    event DeliveredPackage(uint256 packageID);\r\n    event SoldPackage(uint256 packageID);\r\n\r\n    uint256 totalProduceSupply;\r\n    uint256 totalPackageSupply;\r\n\r\n    function createProduce(bytes memory produceReferenceID, bytes memory produceName, uint dateofBirth) public isProducer() {\r\n        produce memory newProduct = produce(produceReferenceID, produceName, dateofBirth, msg.sender);\r\n        _produces[totalProduceSupply] = newProduct;\r\n        _produceOwner[totalProduceSupply] = msg.sender;\r\n\r\n        uint256 index = _ownedProduceList[msg.sender].length;\r\n        _indexOfProduceList[msg.sender][totalProduceSupply] = index + 1;\r\n        _produceIDOfIndexList[msg.sender][index + 1] = totalProduceSupply;\r\n\r\n        _ownedProduceList[msg.sender].push(newProduct);\r\n        emit CreatedProduce(totalProduceSupply);\r\n        totalProduceSupply = totalProduceSupply.add(1);\r\n        _userInformations[msg.sender].produceQuantity = _userInformations[msg.sender].produceQuantity.add(1);\r\n    }\r\n\r\n    function sendForProcessing(uint256 produceID, address processor) public \r\n    isProducer() isProduceOwner(produceID) isProcessorAddress(processor) {\r\n        _produceOwner[produceID] = processor;\r\n        // Retrieve the selected produce and it's respective index on the producer owned array\r\n        uint256 producerArrayLength = _ownedProduceList[msg.sender].length;\r\n        uint256 produceOldIndex = _indexOfProduceList[msg.sender][produceID];\r\n        produce memory transferringProduce = _ownedProduceList[msg.sender][produceOldIndex - 1];\r\n        uint256 swappedProduceID = _produceIDOfIndexList[msg.sender][producerArrayLength];\r\n        // Swapping selected produce with the last in array and deleting off the last one\r\n        // updates the index of the swapped produce\r\n        _produceIDOfIndexList[msg.sender][producerArrayLength] = 0;\r\n        _produceIDOfIndexList[msg.sender][produceOldIndex] = swappedProduceID;\r\n\r\n        _indexOfProduceList[msg.sender][swappedProduceID] = produceOldIndex;\r\n        _indexOfProduceList[msg.sender][produceID] = 0;\r\n\r\n        _ownedProduceList[msg.sender][produceOldIndex - 1] = _ownedProduceList[msg.sender][producerArrayLength - 1];\r\n        delete _ownedProduceList[msg.sender][producerArrayLength - 1];\r\n        _ownedProduceList[msg.sender].length--;\r\n\r\n        uint256 indexProcessor = _ownedProduceList[processor].length;\r\n        _indexOfProduceList[processor][totalProduceSupply] = indexProcessor + 1;\r\n        _produceIDOfIndexList[processor][indexProcessor + 1] = produceID;\r\n        _ownedProduceList[processor].push(transferringProduce);\r\n\r\n        _userInformations[msg.sender].produceQuantity = _userInformations[msg.sender].produceQuantity.sub(1);\r\n        _userInformations[processor].produceQuantity = _userInformations[processor].produceQuantity.add(1);\r\n        emit ProcessedProduce(produceID);\r\n    }\r\n\r\n    function createPackage(uint256 produceID, \r\n                            bytes memory packageReferenceID, \r\n                            bytes memory packageName,\r\n                            bytes memory packagedCategory, \r\n                            uint packagedWeight, \r\n                            uint packagedDate, \r\n                            uint bestBefore) public isProcessor() isProduceOwner(produceID) {\r\n        package memory newPackage = package(packageReferenceID, packageName, packagedCategory, packagedWeight, \r\n                                            packagedDate, bestBefore, msg.sender, address(0), produceID);\r\n        _packages[totalPackageSupply] = newPackage;\r\n        _packageOwner[totalPackageSupply] = msg.sender;\r\n\r\n        uint256 index = _ownedPackageList[msg.sender].length;\r\n        _indexOfPackageList[msg.sender][totalPackageSupply] = index + 1;\r\n        _packageIDOfIndexList[msg.sender][index + 1] = totalPackageSupply;\r\n\r\n        _ownedPackageList[msg.sender].push(newPackage);\r\n        emit CreatedPackage(totalPackageSupply);\r\n        totalPackageSupply = totalPackageSupply.add(1);\r\n        _userInformations[msg.sender].packageQuantity = _userInformations[msg.sender].packageQuantity.add(1);\r\n    }\r\n\r\n    function sendToRetailer(uint256 packageID, address retailer) public \r\n    isProcessor() isPackageOwner(packageID) isRetailerAddress(retailer) {\r\n        _packageOwner[packageID] = retailer;\r\n        // Retrieve the selected package and it's respective index on the packager owned array\r\n        uint256 packagerArrayLength = _ownedPackageList[msg.sender].length;\r\n        uint256 packageOldIndex = _indexOfPackageList[msg.sender][packageID];\r\n        _ownedPackageList[msg.sender][packageOldIndex - 1].retailer = retailer;\r\n        package memory transferringPackage = _ownedPackageList[msg.sender][packageOldIndex - 1];\r\n        uint256 swappedPackageID = _packageIDOfIndexList[msg.sender][packagerArrayLength];\r\n        // Swapping selected package with the last in array and deleting off the last one\r\n        // updates the index of the swapped package\r\n        _packageIDOfIndexList[msg.sender][packagerArrayLength] = 0;\r\n        _packageIDOfIndexList[msg.sender][packageOldIndex] = swappedPackageID;\r\n\r\n        _indexOfPackageList[msg.sender][swappedPackageID] = packageOldIndex;\r\n        _indexOfPackageList[msg.sender][packageID] = 0;\r\n\r\n        _ownedPackageList[msg.sender][packageOldIndex - 1] = _ownedPackageList[msg.sender][packagerArrayLength - 1];\r\n        delete _ownedPackageList[msg.sender][packagerArrayLength - 1];\r\n        _ownedPackageList[msg.sender].length--;\r\n\r\n        uint256 indexRetailer = _ownedPackageList[retailer].length;\r\n        _indexOfPackageList[retailer][totalPackageSupply] = indexRetailer + 1;\r\n        _packageIDOfIndexList[retailer][indexRetailer + 1] = packageID;\r\n        _ownedPackageList[retailer].push(transferringPackage);\r\n\r\n        _userInformations[msg.sender].packageQuantity = _userInformations[msg.sender].packageQuantity.sub(1);\r\n        _userInformations[retailer].packageQuantity = _userInformations[retailer].packageQuantity.add(1);\r\n        emit DeliveredPackage(packageID);\r\n    }\r\n\r\n    function sellPackage(uint256 packageID) public isRetailer() isValidPackage(packageID) isPackageOwner(packageID) {\r\n        _packageOwner[packageID] = address(0);\r\n\r\n        uint256 packagerArrayLength = _ownedPackageList[msg.sender].length;\r\n        uint256 packageOldIndex = _indexOfPackageList[msg.sender][packageID];\r\n        // package memory transferringPackage = _ownedPackageList[msg.sender][packageOldIndex - 1];\r\n        uint256 swappedPackageID = _packageIDOfIndexList[msg.sender][packagerArrayLength];\r\n\r\n        _packageIDOfIndexList[msg.sender][packagerArrayLength] = 0;\r\n        _packageIDOfIndexList[msg.sender][packageOldIndex] = swappedPackageID;\r\n\r\n        _indexOfPackageList[msg.sender][swappedPackageID] = packageOldIndex;\r\n        _indexOfPackageList[msg.sender][packageID] = 0;\r\n\r\n        _ownedPackageList[msg.sender][packageOldIndex - 1] = _ownedPackageList[msg.sender][packagerArrayLength - 1];\r\n        delete _ownedPackageList[msg.sender][packagerArrayLength - 1];\r\n        _ownedPackageList[msg.sender].length--;\r\n\r\n        _userInformations[msg.sender].packageQuantity = _userInformations[msg.sender].packageQuantity.sub(1);\r\n        emit SoldPackage(packageID);\r\n    }\r\n\r\n    // Getter functions; publiv view methods which are free //\r\n    function getProduceInformation(uint256 produceID) public view returns (produce memory) {\r\n        address owner = _produceOwner[produceID];\r\n        uint256 produceIndex = _indexOfProduceList[owner][produceID];\r\n        return _ownedProduceList[owner][produceIndex];\r\n    }\r\n\r\n    function getNumberProduce(address selectedUser) public view returns (uint256) {\r\n        // return _userInformations[selectedUser].produceQuantity;\r\n        return _ownedProduceList[selectedUser].length;\r\n    }\r\n\r\n    function getNumberPackage(address selectedUser) public view returns (uint256) {\r\n        // return _userInformations[selectedUser].packageQuantity;\r\n        return _ownedPackageList[selectedUser].length;\r\n    }\r\n\r\n    function getProduceOwner(uint256 produceID) public view returns (address) {\r\n        return _produceOwner[produceID];\r\n    }\r\n\r\n    function getProduceIndex(uint256 produceID, address owner) public view returns (uint256) {\r\n        return _indexOfProduceList[owner][produceID];\r\n    }\r\n\r\n    function getProduceIDFromIndex(uint256 index, address owner) public view returns (uint256) {\r\n        return _produceIDOfIndexList[owner][index];\r\n    }\r\n\r\n    function getProduceNameFromIndex(uint256 index, address owner) public view returns (bytes memory) {\r\n        return _ownedProduceList[owner][index].produceName;\r\n    } \r\n\r\n    function getProduceOwned(address ownerAddress) public view returns (produce[] memory) {\r\n        return _ownedProduceList[ownerAddress];\r\n    }\r\n\r\n    function getPackageOwner(uint256 packageID) public view returns (address) {\r\n        return _packageOwner[packageID];\r\n    }\r\n\r\n    function getPackageIndex(uint256 packageID, address owner) public view returns (uint256) {\r\n        return _indexOfPackageList[owner][packageID];\r\n    }\r\n\r\n    function getPackageIDFromIndex(uint256 index, address owner) public view returns (uint256) {\r\n        return _packageIDOfIndexList[owner][index];\r\n    }\r\n\r\n    function getPackagesOwned(address ownerAddress) public view returns (package[] memory) {\r\n        return _ownedPackageList[ownerAddress];\r\n    }\r\n\r\n    function getTotalProduce() public view returns (uint256) {\r\n        return totalProduceSupply;\r\n    }\r\n\r\n    function getTotalPackage() public view returns (uint256) {\r\n        return totalPackageSupply;\r\n    }\r\n\r\n\r\n\r\n    // Internal functions for manipulation, will not be exposed to public\r\n    function _toBytes(uint256 x) internal pure returns (bytes memory b) {\r\n    b = new bytes(32);\r\n    for (uint i = 0; i < 32; i++) {\r\n        b[i] = byte(uint8(x / (2**(8*(31 - i))))); \r\n        }\r\n    }\r\n\r\n    function _convertIntToString(uint256 _number) internal pure returns (string memory) {\r\n        uint256 _tmpN = _number;\r\n        if (_tmpN == 0) {\r\n            return \"0\";\r\n        } \r\n        uint256 j = _tmpN;\r\n        uint256 length = 0;\r\n        while (j != 0){\r\n            length++;\r\n            j /= 10;\r\n        }\r\n        bytes memory bstr = new bytes(length);\r\n        uint256 k = length - 1;\r\n        while (_tmpN != 0) {\r\n            bstr[k--] = byte(uint8(48 + _tmpN % 10));\r\n            _tmpN /= 10;\r\n        }\r\n        return string(bstr);\r\n    }\r\n\r\n    function _append(string memory a, string memory b) internal pure returns (string memory) {\r\n        return string(abi.encodePacked(a, b));\r\n    }\r\n}",
  "sourcePath": "C:\\Users\\Huang Ming\\Desktop\\Hack4Good\\BackEnd\\contracts\\FoodChainEcosystem.sol",
  "compiler": {
    "name": "solc",
    "version": "0.5.16+commit.9c3226ce.Emscripten.clang"
  },
  "schemaVersion": "3.0.23",
  "updatedAt": "2020-03-12T10:34:25.828Z",
  "networkType": "ethereum",
  "devdoc": {
    "methods": {}
  },
  "userdoc": {
    "methods": {}
  }
}