{
  "contractName": "FoodChainEcosystem",
  "abi": [
    {
      "inputs": [],
      "payable": false,
      "stateMutability": "nonpayable",
      "type": "constructor"
    },
    {
      "anonymous": false,
      "inputs": [
        {
          "indexed": false,
          "internalType": "uint256",
          "name": "packageID",
          "type": "uint256"
        }
      ],
      "name": "CreatedPackage",
      "type": "event"
    },
    {
      "anonymous": false,
      "inputs": [
        {
          "indexed": false,
          "internalType": "uint256",
          "name": "produceID",
          "type": "uint256"
        }
      ],
      "name": "CreatedProduce",
      "type": "event"
    },
    {
      "anonymous": false,
      "inputs": [
        {
          "indexed": false,
          "internalType": "uint256",
          "name": "packageID",
          "type": "uint256"
        }
      ],
      "name": "DeliveredPackage",
      "type": "event"
    },
    {
      "anonymous": false,
      "inputs": [
        {
          "indexed": false,
          "internalType": "uint256",
          "name": "produceID",
          "type": "uint256"
        }
      ],
      "name": "ProcessedProduce",
      "type": "event"
    },
    {
      "anonymous": false,
      "inputs": [
        {
          "indexed": false,
          "internalType": "address",
          "name": "processorAddress",
          "type": "address"
        }
      ],
      "name": "RegisteredProcessor",
      "type": "event"
    },
    {
      "anonymous": false,
      "inputs": [
        {
          "indexed": false,
          "internalType": "address",
          "name": "producerAddress",
          "type": "address"
        }
      ],
      "name": "RegisteredProducer",
      "type": "event"
    },
    {
      "anonymous": false,
      "inputs": [
        {
          "indexed": false,
          "internalType": "address",
          "name": "retailerAddress",
          "type": "address"
        }
      ],
      "name": "RegisteredRetailer",
      "type": "event"
    },
    {
      "anonymous": false,
      "inputs": [
        {
          "indexed": false,
          "internalType": "uint256",
          "name": "packageID",
          "type": "uint256"
        }
      ],
      "name": "SoldPackage",
      "type": "event"
    },
    {
      "constant": false,
      "inputs": [
        {
          "internalType": "address",
          "name": "producerAddress",
          "type": "address"
        }
      ],
      "name": "registerProducer",
      "outputs": [],
      "payable": false,
      "stateMutability": "nonpayable",
      "type": "function"
    },
    {
      "constant": false,
      "inputs": [
        {
          "internalType": "address",
          "name": "processorAddress",
          "type": "address"
        }
      ],
      "name": "registerProcessor",
      "outputs": [],
      "payable": false,
      "stateMutability": "nonpayable",
      "type": "function"
    },
    {
      "constant": false,
      "inputs": [
        {
          "internalType": "address",
          "name": "retailerAddress",
          "type": "address"
        }
      ],
      "name": "registerRetailer",
      "outputs": [],
      "payable": false,
      "stateMutability": "nonpayable",
      "type": "function"
    },
    {
      "constant": false,
      "inputs": [
        {
          "internalType": "bytes",
          "name": "produceReferenceID",
          "type": "bytes"
        },
        {
          "internalType": "bytes",
          "name": "produceName",
          "type": "bytes"
        },
        {
          "internalType": "bytes",
          "name": "diet",
          "type": "bytes"
        },
        {
          "internalType": "uint256",
          "name": "dateofBirth",
          "type": "uint256"
        }
      ],
      "name": "createProduce",
      "outputs": [],
      "payable": false,
      "stateMutability": "nonpayable",
      "type": "function"
    },
    {
      "constant": false,
      "inputs": [
        {
          "internalType": "uint256",
          "name": "produceID",
          "type": "uint256"
        },
        {
          "internalType": "address",
          "name": "processor",
          "type": "address"
        }
      ],
      "name": "sendForProcessing",
      "outputs": [],
      "payable": false,
      "stateMutability": "nonpayable",
      "type": "function"
    },
    {
      "constant": false,
      "inputs": [
        {
          "internalType": "uint256",
          "name": "produceID",
          "type": "uint256"
        },
        {
          "internalType": "bytes",
          "name": "packageReferenceID",
          "type": "bytes"
        },
        {
          "internalType": "bytes",
          "name": "packageName",
          "type": "bytes"
        },
        {
          "internalType": "bytes",
          "name": "packagedCategory",
          "type": "bytes"
        },
        {
          "internalType": "uint256",
          "name": "packagedWeight",
          "type": "uint256"
        },
        {
          "internalType": "uint256",
          "name": "packagedDate",
          "type": "uint256"
        },
        {
          "internalType": "uint256",
          "name": "bestBefore",
          "type": "uint256"
        }
      ],
      "name": "createPackage",
      "outputs": [],
      "payable": false,
      "stateMutability": "nonpayable",
      "type": "function"
    },
    {
      "constant": false,
      "inputs": [
        {
          "internalType": "uint256",
          "name": "packageID",
          "type": "uint256"
        },
        {
          "internalType": "address",
          "name": "retailer",
          "type": "address"
        }
      ],
      "name": "sendToRetailer",
      "outputs": [],
      "payable": false,
      "stateMutability": "nonpayable",
      "type": "function"
    },
    {
      "constant": false,
      "inputs": [
        {
          "internalType": "uint256",
          "name": "packageID",
          "type": "uint256"
        }
      ],
      "name": "sellPackage",
      "outputs": [],
      "payable": false,
      "stateMutability": "nonpayable",
      "type": "function"
    },
    {
      "constant": true,
      "inputs": [
        {
          "internalType": "uint256",
          "name": "produceID",
          "type": "uint256"
        }
      ],
      "name": "getProduceInformation",
      "outputs": [
        {
          "components": [
            {
              "internalType": "bytes",
              "name": "produceReferenceID",
              "type": "bytes"
            },
            {
              "internalType": "bytes",
              "name": "produceName",
              "type": "bytes"
            },
            {
              "internalType": "bytes",
              "name": "diet",
              "type": "bytes"
            },
            {
              "internalType": "uint256",
              "name": "dateOfBirth",
              "type": "uint256"
            },
            {
              "internalType": "address",
              "name": "producer",
              "type": "address"
            }
          ],
          "internalType": "struct FoodChainEcosystem.produce",
          "name": "",
          "type": "tuple"
        }
      ],
      "payable": false,
      "stateMutability": "view",
      "type": "function"
    },
    {
      "constant": true,
      "inputs": [
        {
          "internalType": "address",
          "name": "selectedUser",
          "type": "address"
        }
      ],
      "name": "getNumberProduce",
      "outputs": [
        {
          "internalType": "uint256",
          "name": "",
          "type": "uint256"
        }
      ],
      "payable": false,
      "stateMutability": "view",
      "type": "function"
    },
    {
      "constant": true,
      "inputs": [
        {
          "internalType": "address",
          "name": "selectedUser",
          "type": "address"
        }
      ],
      "name": "getNumberPackage",
      "outputs": [
        {
          "internalType": "uint256",
          "name": "",
          "type": "uint256"
        }
      ],
      "payable": false,
      "stateMutability": "view",
      "type": "function"
    },
    {
      "constant": true,
      "inputs": [
        {
          "internalType": "uint256",
          "name": "produceID",
          "type": "uint256"
        }
      ],
      "name": "getProduceOwner",
      "outputs": [
        {
          "internalType": "address",
          "name": "",
          "type": "address"
        }
      ],
      "payable": false,
      "stateMutability": "view",
      "type": "function"
    },
    {
      "constant": true,
      "inputs": [
        {
          "internalType": "uint256",
          "name": "produceID",
          "type": "uint256"
        },
        {
          "internalType": "address",
          "name": "owner",
          "type": "address"
        }
      ],
      "name": "getProduceIndex",
      "outputs": [
        {
          "internalType": "uint256",
          "name": "",
          "type": "uint256"
        }
      ],
      "payable": false,
      "stateMutability": "view",
      "type": "function"
    },
    {
      "constant": true,
      "inputs": [
        {
          "internalType": "uint256",
          "name": "index",
          "type": "uint256"
        },
        {
          "internalType": "address",
          "name": "owner",
          "type": "address"
        }
      ],
      "name": "getProduceIDFromIndex",
      "outputs": [
        {
          "internalType": "uint256",
          "name": "",
          "type": "uint256"
        }
      ],
      "payable": false,
      "stateMutability": "view",
      "type": "function"
    },
    {
      "constant": true,
      "inputs": [
        {
          "internalType": "uint256",
          "name": "index",
          "type": "uint256"
        },
        {
          "internalType": "address",
          "name": "owner",
          "type": "address"
        }
      ],
      "name": "getProduceNameFromIndex",
      "outputs": [
        {
          "internalType": "bytes",
          "name": "",
          "type": "bytes"
        }
      ],
      "payable": false,
      "stateMutability": "view",
      "type": "function"
    },
    {
      "constant": true,
      "inputs": [
        {
          "internalType": "address",
          "name": "ownerAddress",
          "type": "address"
        }
      ],
      "name": "getProduceOwned",
      "outputs": [
        {
          "components": [
            {
              "internalType": "bytes",
              "name": "produceReferenceID",
              "type": "bytes"
            },
            {
              "internalType": "bytes",
              "name": "produceName",
              "type": "bytes"
            },
            {
              "internalType": "bytes",
              "name": "diet",
              "type": "bytes"
            },
            {
              "internalType": "uint256",
              "name": "dateOfBirth",
              "type": "uint256"
            },
            {
              "internalType": "address",
              "name": "producer",
              "type": "address"
            }
          ],
          "internalType": "struct FoodChainEcosystem.produce[]",
          "name": "",
          "type": "tuple[]"
        }
      ],
      "payable": false,
      "stateMutability": "view",
      "type": "function"
    },
    {
      "constant": true,
      "inputs": [
        {
          "internalType": "uint256",
          "name": "packageID",
          "type": "uint256"
        }
      ],
      "name": "getPackageOwner",
      "outputs": [
        {
          "internalType": "address",
          "name": "",
          "type": "address"
        }
      ],
      "payable": false,
      "stateMutability": "view",
      "type": "function"
    },
    {
      "constant": true,
      "inputs": [
        {
          "internalType": "uint256",
          "name": "packageID",
          "type": "uint256"
        },
        {
          "internalType": "address",
          "name": "owner",
          "type": "address"
        }
      ],
      "name": "getPackageIndex",
      "outputs": [
        {
          "internalType": "uint256",
          "name": "",
          "type": "uint256"
        }
      ],
      "payable": false,
      "stateMutability": "view",
      "type": "function"
    },
    {
      "constant": true,
      "inputs": [
        {
          "internalType": "uint256",
          "name": "index",
          "type": "uint256"
        },
        {
          "internalType": "address",
          "name": "owner",
          "type": "address"
        }
      ],
      "name": "getPackageIDFromIndex",
      "outputs": [
        {
          "internalType": "uint256",
          "name": "",
          "type": "uint256"
        }
      ],
      "payable": false,
      "stateMutability": "view",
      "type": "function"
    },
    {
      "constant": true,
      "inputs": [
        {
          "internalType": "address",
          "name": "ownerAddress",
          "type": "address"
        }
      ],
      "name": "getPackagesOwned",
      "outputs": [
        {
          "components": [
            {
              "internalType": "bytes",
              "name": "packageReferenceID",
              "type": "bytes"
            },
            {
              "internalType": "bytes",
              "name": "packageName",
              "type": "bytes"
            },
            {
              "internalType": "bytes",
              "name": "packagedCategory",
              "type": "bytes"
            },
            {
              "internalType": "uint256",
              "name": "packagedWeight",
              "type": "uint256"
            },
            {
              "internalType": "uint256",
              "name": "packagedDate",
              "type": "uint256"
            },
            {
              "internalType": "uint256",
              "name": "bestBefore",
              "type": "uint256"
            },
            {
              "internalType": "address",
              "name": "processor",
              "type": "address"
            },
            {
              "internalType": "address",
              "name": "retailer",
              "type": "address"
            },
            {
              "internalType": "uint256",
              "name": "assetID",
              "type": "uint256"
            }
          ],
          "internalType": "struct FoodChainEcosystem.package[]",
          "name": "",
          "type": "tuple[]"
        }
      ],
      "payable": false,
      "stateMutability": "view",
      "type": "function"
    },
    {
      "constant": true,
      "inputs": [],
      "name": "getTotalProduce",
      "outputs": [
        {
          "internalType": "uint256",
          "name": "",
          "type": "uint256"
        }
      ],
      "payable": false,
      "stateMutability": "view",
      "type": "function"
    },
    {
      "constant": true,
      "inputs": [],
      "name": "getTotalPackage",
      "outputs": [
        {
          "internalType": "uint256",
          "name": "",
          "type": "uint256"
        }
      ],
      "payable": false,
      "stateMutability": "view",
      "type": "function"
    }
  ],
  "bytecode": "0x608060405234801561001057600080fd5b50336000806101000a81548173ffffffffffffffffffffffffffffffffffffffff021916908373ffffffffffffffffffffffffffffffffffffffff16021790555061588d80620000616000396000f3fe608060405234801561001057600080fd5b50600436106101425760003560e01c8063a11a708f116100b8578063bec9b2981161007c578063bec9b298146103ab578063c4bf341b146103db578063d304a3d9146103f7578063d904a36114610427578063e2729fac14610443578063eb7d08a61461047357610142565b8063a11a708f146102e1578063a471b51f146102ff578063a83006da1461032f578063a9f4c5a91461034b578063b09ad1161461037b57610142565b806360d2d3cd1161010a57806360d2d3cd146101fb5780636cb70b3c146102195780636d8dc628146102495780638345750b1461027957806385b99d2e146102955780639495eeda146102b157610142565b8063074a157e1461014757806335569329146101635780633c530ace1461017f578063513c89ea1461019b5780635d6637a7146101cb575b600080fd5b610161600480360361015c9190810190614b0b565b6104a3565b005b61017d60048036036101789190810190614bdf565b6105c6565b005b61019960048036036101949190810190614b0b565b610de7565b005b6101b560048036036101b09190810190614b0b565b610f0a565b6040516101c29190615653565b60405180910390f35b6101e560048036036101e09190810190614c08565b610f56565b6040516101f291906154cd565b60405180910390f35b610203611054565b6040516102109190615653565b60405180910390f35b610233600480360361022e9190810190614c08565b61105e565b6040516102409190615653565b60405180910390f35b610263600480360361025e9190810190614bdf565b6110b9565b6040516102709190615631565b60405180910390f35b610293600480360361028e9190810190614c08565b611400565b005b6102af60048036036102aa9190810190614b34565b612393565b005b6102cb60048036036102c69190810190614c08565b61288e565b6040516102d89190615653565b60405180910390f35b6102e96128e9565b6040516102f69190615653565b60405180910390f35b61031960048036036103149190810190614b0b565b6128f3565b6040516103269190615489565b60405180910390f35b61034960048036036103449190810190614b0b565b612c4c565b005b61036560048036036103609190810190614bdf565b612d6f565b604051610372919061546e565b60405180910390f35b61039560048036036103909190810190614b0b565b612dac565b6040516103a29190615653565b60405180910390f35b6103c560048036036103c09190810190614c08565b612df8565b6040516103d29190615653565b60405180910390f35b6103f560048036036103f09190810190614c44565b612e53565b005b610411600480360361040c9190810190614c08565b6134f0565b60405161041e9190615653565b60405180910390f35b610441600480360361043c9190810190614c08565b61354b565b005b61045d60048036036104589190810190614bdf565b6142a2565b60405161046a919061546e565b60405180910390f35b61048d60048036036104889190810190614b0b565b6142df565b60405161049a91906154ab565b60405180910390f35b6000809054906101000a900473ffffffffffffffffffffffffffffffffffffffff1673ffffffffffffffffffffffffffffffffffffffff163373ffffffffffffffffffffffffffffffffffffffff1614610532576040517f08c379a0000000000000000000000000000000000000000000000000000000008152600401610529906155f1565b60405180910390fd5b60018060008373ffffffffffffffffffffffffffffffffffffffff1673ffffffffffffffffffffffffffffffffffffffff16815260200190815260200160002060000160016101000a81548160ff0219169083151502179055507fbdf4b30c98e1d79a8aeb6813119a4c187bed83e5511fbdebe042a1739d3d95a4816040516105bb919061546e565b60405180910390a150565b60011515600160003373ffffffffffffffffffffffffffffffffffffffff1673ffffffffffffffffffffffffffffffffffffffff16815260200190815260200160002060000160029054906101000a900460ff1615151461065c576040517f08c379a000000000000000000000000000000000000000000000000000000000815260040161065390615571565b60405180910390fd5b803373ffffffffffffffffffffffffffffffffffffffff166003600083815260200190815260200160002060009054906101000a900473ffffffffffffffffffffffffffffffffffffffff1673ffffffffffffffffffffffffffffffffffffffff16146106fe576040517f08c379a00000000000000000000000000000000000000000000000000000000081526004016106f5906155d1565b60405180910390fd5b60006003600084815260200190815260200160002060006101000a81548173ffffffffffffffffffffffffffffffffffffffff021916908373ffffffffffffffffffffffffffffffffffffffff1602179055506000600960003373ffffffffffffffffffffffffffffffffffffffff1673ffffffffffffffffffffffffffffffffffffffff1681526020019081526020016000208054905090506000600a60003373ffffffffffffffffffffffffffffffffffffffff1673ffffffffffffffffffffffffffffffffffffffff16815260200190815260200160002060008581526020019081526020016000205490506000600b60003373ffffffffffffffffffffffffffffffffffffffff1673ffffffffffffffffffffffffffffffffffffffff16815260200190815260200160002060008481526020019081526020016000205490506000600b60003373ffffffffffffffffffffffffffffffffffffffff1673ffffffffffffffffffffffffffffffffffffffff16815260200190815260200160002060008581526020019081526020016000208190555080600b60003373ffffffffffffffffffffffffffffffffffffffff1673ffffffffffffffffffffffffffffffffffffffff16815260200190815260200160002060008481526020019081526020016000208190555081600a60003373ffffffffffffffffffffffffffffffffffffffff1673ffffffffffffffffffffffffffffffffffffffff1681526020019081526020016000206000838152602001908152602001600020819055506000600a60003373ffffffffffffffffffffffffffffffffffffffff1673ffffffffffffffffffffffffffffffffffffffff168152602001908152602001600020600087815260200190815260200160002081905550600960003373ffffffffffffffffffffffffffffffffffffffff1673ffffffffffffffffffffffffffffffffffffffff16815260200190815260200160002060018403815481106109e557fe5b9060005260206000209060090201600960003373ffffffffffffffffffffffffffffffffffffffff1673ffffffffffffffffffffffffffffffffffffffff1681526020019081526020016000206001840381548110610a4057fe5b906000526020600020906009020160008201816000019080546001816001161561010002031660029004610a759291906146bd565b5060018201816001019080546001816001161561010002031660029004610a9d9291906146bd565b5060028201816002019080546001816001161561010002031660029004610ac59291906146bd565b506003820154816003015560048201548160040155600582015481600501556006820160009054906101000a900473ffffffffffffffffffffffffffffffffffffffff168160060160006101000a81548173ffffffffffffffffffffffffffffffffffffffff021916908373ffffffffffffffffffffffffffffffffffffffff1602179055506007820160009054906101000a900473ffffffffffffffffffffffffffffffffffffffff168160070160006101000a81548173ffffffffffffffffffffffffffffffffffffffff021916908373ffffffffffffffffffffffffffffffffffffffff16021790555060088201548160080155905050600960003373ffffffffffffffffffffffffffffffffffffffff1673ffffffffffffffffffffffffffffffffffffffff1681526020019081526020016000206001840381548110610c0c57fe5b906000526020600020906009020160008082016000610c2b9190614744565b600182016000610c3b9190614744565b600282016000610c4b9190614744565b6003820160009055600482016000905560058201600090556006820160006101000a81549073ffffffffffffffffffffffffffffffffffffffff02191690556007820160006101000a81549073ffffffffffffffffffffffffffffffffffffffff021916905560088201600090555050600960003373ffffffffffffffffffffffffffffffffffffffff1673ffffffffffffffffffffffffffffffffffffffff168152602001908152602001600020805480919060019003610d0d919061478c565b50610d6360018060003373ffffffffffffffffffffffffffffffffffffffff1673ffffffffffffffffffffffffffffffffffffffff168152602001908152602001600020600201546145c390919063ffffffff16565b600160003373ffffffffffffffffffffffffffffffffffffffff1673ffffffffffffffffffffffffffffffffffffffff168152602001908152602001600020600201819055507f55d51fa0232ae9e52d7109fa2407f654f175ce85ae1da2d6fdea65c13bcd54d285604051610dd89190615653565b60405180910390a15050505050565b6000809054906101000a900473ffffffffffffffffffffffffffffffffffffffff1673ffffffffffffffffffffffffffffffffffffffff163373ffffffffffffffffffffffffffffffffffffffff1614610e76576040517f08c379a0000000000000000000000000000000000000000000000000000000008152600401610e6d906155f1565b60405180910390fd5b60018060008373ffffffffffffffffffffffffffffffffffffffff1673ffffffffffffffffffffffffffffffffffffffff16815260200190815260200160002060000160006101000a81548160ff0219169083151502179055507f121963ccfbfe2fa69d35b8067af6f81fcc3d2158fbcefdbb8e6d6f10beb394f481604051610eff919061546e565b60405180910390a150565b6000600960008373ffffffffffffffffffffffffffffffffffffffff1673ffffffffffffffffffffffffffffffffffffffff168152602001908152602001600020805490509050919050565b6060600660008373ffffffffffffffffffffffffffffffffffffffff1673ffffffffffffffffffffffffffffffffffffffff1681526020019081526020016000208381548110610fa257fe5b90600052602060002090600502016001018054600181600116156101000203166002900480601f0160208091040260200160405190810160405280929190818152602001828054600181600116156101000203166002900480156110475780601f1061101c57610100808354040283529160200191611047565b820191906000526020600020905b81548152906001019060200180831161102a57829003601f168201915b5050505050905092915050565b6000600c54905090565b6000600860008373ffffffffffffffffffffffffffffffffffffffff1673ffffffffffffffffffffffffffffffffffffffff168152602001908152602001600020600084815260200190815260200160002054905092915050565b6110c16147be565b60006002600084815260200190815260200160002060009054906101000a900473ffffffffffffffffffffffffffffffffffffffff1690506000600760008373ffffffffffffffffffffffffffffffffffffffff1673ffffffffffffffffffffffffffffffffffffffff1681526020019081526020016000206000858152602001908152602001600020549050600660008373ffffffffffffffffffffffffffffffffffffffff1673ffffffffffffffffffffffffffffffffffffffff168152602001908152602001600020818154811061119857fe5b90600052602060002090600502016040518060a0016040529081600082018054600181600116156101000203166002900480601f01602080910402602001604051908101604052809291908181526020018280546001816001161561010002031660029004801561124a5780601f1061121f5761010080835404028352916020019161124a565b820191906000526020600020905b81548152906001019060200180831161122d57829003601f168201915b50505050508152602001600182018054600181600116156101000203166002900480601f0160208091040260200160405190810160405280929190818152602001828054600181600116156101000203166002900480156112ec5780601f106112c1576101008083540402835291602001916112ec565b820191906000526020600020905b8154815290600101906020018083116112cf57829003601f168201915b50505050508152602001600282018054600181600116156101000203166002900480601f01602080910402602001604051908101604052809291908181526020018280546001816001161561010002031660029004801561138e5780601f106113635761010080835404028352916020019161138e565b820191906000526020600020905b81548152906001019060200180831161137157829003601f168201915b50505050508152602001600382015481526020016004820160009054906101000a900473ffffffffffffffffffffffffffffffffffffffff1673ffffffffffffffffffffffffffffffffffffffff1673ffffffffffffffffffffffffffffffffffffffff168152505092505050919050565b60011515600160003373ffffffffffffffffffffffffffffffffffffffff1673ffffffffffffffffffffffffffffffffffffffff16815260200190815260200160002060000160019054906101000a900460ff16151514611496576040517f08c379a000000000000000000000000000000000000000000000000000000000815260040161148d90615591565b60405180910390fd5b813373ffffffffffffffffffffffffffffffffffffffff166003600083815260200190815260200160002060009054906101000a900473ffffffffffffffffffffffffffffffffffffffff1673ffffffffffffffffffffffffffffffffffffffff1614611538576040517f08c379a000000000000000000000000000000000000000000000000000000000815260040161152f906155d1565b60405180910390fd5b8160011515600160008373ffffffffffffffffffffffffffffffffffffffff1673ffffffffffffffffffffffffffffffffffffffff16815260200190815260200160002060000160029054906101000a900460ff161515146115cf576040517f08c379a00000000000000000000000000000000000000000000000000000000081526004016115c6906155b1565b60405180910390fd5b826003600086815260200190815260200160002060006101000a81548173ffffffffffffffffffffffffffffffffffffffff021916908373ffffffffffffffffffffffffffffffffffffffff1602179055506000600960003373ffffffffffffffffffffffffffffffffffffffff1673ffffffffffffffffffffffffffffffffffffffff1681526020019081526020016000208054905090506000600a60003373ffffffffffffffffffffffffffffffffffffffff1673ffffffffffffffffffffffffffffffffffffffff168152602001908152602001600020600087815260200190815260200160002054905084600960003373ffffffffffffffffffffffffffffffffffffffff1673ffffffffffffffffffffffffffffffffffffffff168152602001908152602001600020600183038154811061170b57fe5b906000526020600020906009020160070160006101000a81548173ffffffffffffffffffffffffffffffffffffffff021916908373ffffffffffffffffffffffffffffffffffffffff160217905550611762614803565b600960003373ffffffffffffffffffffffffffffffffffffffff1673ffffffffffffffffffffffffffffffffffffffff16815260200190815260200160002060018303815481106117af57fe5b906000526020600020906009020160405180610120016040529081600082018054600181600116156101000203166002900480601f0160208091040260200160405190810160405280929190818152602001828054600181600116156101000203166002900480156118625780601f1061183757610100808354040283529160200191611862565b820191906000526020600020905b81548152906001019060200180831161184557829003601f168201915b50505050508152602001600182018054600181600116156101000203166002900480601f0160208091040260200160405190810160405280929190818152602001828054600181600116156101000203166002900480156119045780601f106118d957610100808354040283529160200191611904565b820191906000526020600020905b8154815290600101906020018083116118e757829003601f168201915b50505050508152602001600282018054600181600116156101000203166002900480601f0160208091040260200160405190810160405280929190818152602001828054600181600116156101000203166002900480156119a65780601f1061197b576101008083540402835291602001916119a6565b820191906000526020600020905b81548152906001019060200180831161198957829003601f168201915b505050505081526020016003820154815260200160048201548152602001600582015481526020016006820160009054906101000a900473ffffffffffffffffffffffffffffffffffffffff1673ffffffffffffffffffffffffffffffffffffffff1673ffffffffffffffffffffffffffffffffffffffff1681526020016007820160009054906101000a900473ffffffffffffffffffffffffffffffffffffffff1673ffffffffffffffffffffffffffffffffffffffff1673ffffffffffffffffffffffffffffffffffffffff16815260200160088201548152505090506000600b60003373ffffffffffffffffffffffffffffffffffffffff1673ffffffffffffffffffffffffffffffffffffffff16815260200190815260200160002060008581526020019081526020016000205490506000600b60003373ffffffffffffffffffffffffffffffffffffffff1673ffffffffffffffffffffffffffffffffffffffff16815260200190815260200160002060008681526020019081526020016000208190555080600b60003373ffffffffffffffffffffffffffffffffffffffff1673ffffffffffffffffffffffffffffffffffffffff16815260200190815260200160002060008581526020019081526020016000208190555082600a60003373ffffffffffffffffffffffffffffffffffffffff1673ffffffffffffffffffffffffffffffffffffffff1681526020019081526020016000206000838152602001908152602001600020819055506000600a60003373ffffffffffffffffffffffffffffffffffffffff1673ffffffffffffffffffffffffffffffffffffffff16815260200190815260200160002060008a815260200190815260200160002081905550600960003373ffffffffffffffffffffffffffffffffffffffff1673ffffffffffffffffffffffffffffffffffffffff1681526020019081526020016000206001850381548110611c7d57fe5b9060005260206000209060090201600960003373ffffffffffffffffffffffffffffffffffffffff1673ffffffffffffffffffffffffffffffffffffffff1681526020019081526020016000206001850381548110611cd857fe5b906000526020600020906009020160008201816000019080546001816001161561010002031660029004611d0d9291906146bd565b5060018201816001019080546001816001161561010002031660029004611d359291906146bd565b5060028201816002019080546001816001161561010002031660029004611d5d9291906146bd565b506003820154816003015560048201548160040155600582015481600501556006820160009054906101000a900473ffffffffffffffffffffffffffffffffffffffff168160060160006101000a81548173ffffffffffffffffffffffffffffffffffffffff021916908373ffffffffffffffffffffffffffffffffffffffff1602179055506007820160009054906101000a900473ffffffffffffffffffffffffffffffffffffffff168160070160006101000a81548173ffffffffffffffffffffffffffffffffffffffff021916908373ffffffffffffffffffffffffffffffffffffffff16021790555060088201548160080155905050600960003373ffffffffffffffffffffffffffffffffffffffff1673ffffffffffffffffffffffffffffffffffffffff1681526020019081526020016000206001850381548110611ea457fe5b906000526020600020906009020160008082016000611ec39190614744565b600182016000611ed39190614744565b600282016000611ee39190614744565b6003820160009055600482016000905560058201600090556006820160006101000a81549073ffffffffffffffffffffffffffffffffffffffff02191690556007820160006101000a81549073ffffffffffffffffffffffffffffffffffffffff021916905560088201600090555050600960003373ffffffffffffffffffffffffffffffffffffffff1673ffffffffffffffffffffffffffffffffffffffff168152602001908152602001600020805480919060019003611fa5919061478c565b506000600960008973ffffffffffffffffffffffffffffffffffffffff1673ffffffffffffffffffffffffffffffffffffffff16815260200190815260200160002080549050905060018101600a60008a73ffffffffffffffffffffffffffffffffffffffff1673ffffffffffffffffffffffffffffffffffffffff1681526020019081526020016000206000600d5481526020019081526020016000208190555088600b60008a73ffffffffffffffffffffffffffffffffffffffff1673ffffffffffffffffffffffffffffffffffffffff168152602001908152602001600020600060018401815260200190815260200160002081905550600960008973ffffffffffffffffffffffffffffffffffffffff1673ffffffffffffffffffffffffffffffffffffffff1681526020019081526020016000208390806001815401808255809150509060018203906000526020600020906009020160009091929091909150600082015181600001908051906020019061212692919061487b565b50602082015181600101908051906020019061214392919061487b565b50604082015181600201908051906020019061216092919061487b565b50606082015181600301556080820151816004015560a0820151816005015560c08201518160060160006101000a81548173ffffffffffffffffffffffffffffffffffffffff021916908373ffffffffffffffffffffffffffffffffffffffff16021790555060e08201518160070160006101000a81548173ffffffffffffffffffffffffffffffffffffffff021916908373ffffffffffffffffffffffffffffffffffffffff160217905550610100820151816008015550505061227060018060003373ffffffffffffffffffffffffffffffffffffffff1673ffffffffffffffffffffffffffffffffffffffff168152602001908152602001600020600201546145c390919063ffffffff16565b600160003373ffffffffffffffffffffffffffffffffffffffff1673ffffffffffffffffffffffffffffffffffffffff1681526020019081526020016000206002018190555061230b60018060008b73ffffffffffffffffffffffffffffffffffffffff1673ffffffffffffffffffffffffffffffffffffffff1681526020019081526020016000206002015461460d90919063ffffffff16565b600160008a73ffffffffffffffffffffffffffffffffffffffff1673ffffffffffffffffffffffffffffffffffffffff168152602001908152602001600020600201819055507f33613076b1c4316d7b7a5a78ab6abbc6ca1e89111a90a8813dfa348d375b0355896040516123809190615653565b60405180910390a1505050505050505050565b60011515600160003373ffffffffffffffffffffffffffffffffffffffff1673ffffffffffffffffffffffffffffffffffffffff16815260200190815260200160002060000160009054906101000a900460ff16151514612429576040517f08c379a000000000000000000000000000000000000000000000000000000000815260040161242090615511565b60405180910390fd5b6124316147be565b6040518060a001604052808681526020018581526020018481526020018381526020013373ffffffffffffffffffffffffffffffffffffffff1681525090508060046000600c54815260200190815260200160002060008201518160000190805190602001906124a292919061487b565b5060208201518160010190805190602001906124bf92919061487b565b5060408201518160020190805190602001906124dc92919061487b565b506060820151816003015560808201518160040160006101000a81548173ffffffffffffffffffffffffffffffffffffffff021916908373ffffffffffffffffffffffffffffffffffffffff1602179055509050503360026000600c54815260200190815260200160002060006101000a81548173ffffffffffffffffffffffffffffffffffffffff021916908373ffffffffffffffffffffffffffffffffffffffff1602179055506000600660003373ffffffffffffffffffffffffffffffffffffffff1673ffffffffffffffffffffffffffffffffffffffff16815260200190815260200160002080549050905060018101600760003373ffffffffffffffffffffffffffffffffffffffff1673ffffffffffffffffffffffffffffffffffffffff1681526020019081526020016000206000600c54815260200190815260200160002081905550600c54600860003373ffffffffffffffffffffffffffffffffffffffff1673ffffffffffffffffffffffffffffffffffffffff168152602001908152602001600020600060018401815260200190815260200160002081905550600660003373ffffffffffffffffffffffffffffffffffffffff1673ffffffffffffffffffffffffffffffffffffffff1681526020019081526020016000208290806001815401808255809150509060018203906000526020600020906005020160009091929091909150600082015181600001908051906020019061270792919061487b565b50602082015181600101908051906020019061272492919061487b565b50604082015181600201908051906020019061274192919061487b565b506060820151816003015560808201518160040160006101000a81548173ffffffffffffffffffffffffffffffffffffffff021916908373ffffffffffffffffffffffffffffffffffffffff1602179055505050507f13f8a2a87e6b15399440c6f547053a23fd2585bd2992004282ab02a12b0408a5600c546040516127c79190615653565b60405180910390a16127e56001600c5461460d90919063ffffffff16565b600c8190555061284060018060003373ffffffffffffffffffffffffffffffffffffffff1673ffffffffffffffffffffffffffffffffffffffff1681526020019081526020016000206001015461460d90919063ffffffff16565b600160003373ffffffffffffffffffffffffffffffffffffffff1673ffffffffffffffffffffffffffffffffffffffff16815260200190815260200160002060010181905550505050505050565b6000600760008373ffffffffffffffffffffffffffffffffffffffff1673ffffffffffffffffffffffffffffffffffffffff168152602001908152602001600020600084815260200190815260200160002054905092915050565b6000600d54905090565b6060600960008373ffffffffffffffffffffffffffffffffffffffff1673ffffffffffffffffffffffffffffffffffffffff168152602001908152602001600020805480602002602001604051908101604052809291908181526020016000905b82821015612c41578382906000526020600020906009020160405180610120016040529081600082018054600181600116156101000203166002900480601f016020809104026020016040519081016040528092919081815260200182805460018160011615610100020316600290048015612a115780601f106129e657610100808354040283529160200191612a11565b820191906000526020600020905b8154815290600101906020018083116129f457829003601f168201915b50505050508152602001600182018054600181600116156101000203166002900480601f016020809104026020016040519081016040528092919081815260200182805460018160011615610100020316600290048015612ab35780601f10612a8857610100808354040283529160200191612ab3565b820191906000526020600020905b815481529060010190602001808311612a9657829003601f168201915b50505050508152602001600282018054600181600116156101000203166002900480601f016020809104026020016040519081016040528092919081815260200182805460018160011615610100020316600290048015612b555780601f10612b2a57610100808354040283529160200191612b55565b820191906000526020600020905b815481529060010190602001808311612b3857829003601f168201915b505050505081526020016003820154815260200160048201548152602001600582015481526020016006820160009054906101000a900473ffffffffffffffffffffffffffffffffffffffff1673ffffffffffffffffffffffffffffffffffffffff1673ffffffffffffffffffffffffffffffffffffffff1681526020016007820160009054906101000a900473ffffffffffffffffffffffffffffffffffffffff1673ffffffffffffffffffffffffffffffffffffffff1673ffffffffffffffffffffffffffffffffffffffff16815260200160088201548152505081526020019060010190612954565b505050509050919050565b6000809054906101000a900473ffffffffffffffffffffffffffffffffffffffff1673ffffffffffffffffffffffffffffffffffffffff163373ffffffffffffffffffffffffffffffffffffffff1614612cdb576040517f08c379a0000000000000000000000000000000000000000000000000000000008152600401612cd2906155f1565b60405180910390fd5b60018060008373ffffffffffffffffffffffffffffffffffffffff1673ffffffffffffffffffffffffffffffffffffffff16815260200190815260200160002060000160026101000a81548160ff0219169083151502179055507f89587cbf8de877929d52ba36e70bd72d5685cfa2c84e706dabf50b224c3a316f81604051612d64919061546e565b60405180910390a150565b60006003600083815260200190815260200160002060009054906101000a900473ffffffffffffffffffffffffffffffffffffffff169050919050565b6000600660008373ffffffffffffffffffffffffffffffffffffffff1673ffffffffffffffffffffffffffffffffffffffff168152602001908152602001600020805490509050919050565b6000600a60008373ffffffffffffffffffffffffffffffffffffffff1673ffffffffffffffffffffffffffffffffffffffff168152602001908152602001600020600084815260200190815260200160002054905092915050565b60011515600160003373ffffffffffffffffffffffffffffffffffffffff1673ffffffffffffffffffffffffffffffffffffffff16815260200190815260200160002060000160019054906101000a900460ff16151514612ee9576040517f08c379a0000000000000000000000000000000000000000000000000000000008152600401612ee090615591565b60405180910390fd5b863373ffffffffffffffffffffffffffffffffffffffff166002600083815260200190815260200160002060009054906101000a900473ffffffffffffffffffffffffffffffffffffffff1673ffffffffffffffffffffffffffffffffffffffff1614612f8b576040517f08c379a0000000000000000000000000000000000000000000000000000000008152600401612f8290615611565b60405180910390fd5b612f93614803565b6040518061012001604052808981526020018881526020018781526020018681526020018581526020018481526020013373ffffffffffffffffffffffffffffffffffffffff168152602001600073ffffffffffffffffffffffffffffffffffffffff1681526020018a81525090508060056000600d548152602001908152602001600020600082015181600001908051906020019061303492919061487b565b50602082015181600101908051906020019061305192919061487b565b50604082015181600201908051906020019061306e92919061487b565b50606082015181600301556080820151816004015560a0820151816005015560c08201518160060160006101000a81548173ffffffffffffffffffffffffffffffffffffffff021916908373ffffffffffffffffffffffffffffffffffffffff16021790555060e08201518160070160006101000a81548173ffffffffffffffffffffffffffffffffffffffff021916908373ffffffffffffffffffffffffffffffffffffffff16021790555061010082015181600801559050503360036000600d54815260200190815260200160002060006101000a81548173ffffffffffffffffffffffffffffffffffffffff021916908373ffffffffffffffffffffffffffffffffffffffff1602179055506000600960003373ffffffffffffffffffffffffffffffffffffffff1673ffffffffffffffffffffffffffffffffffffffff16815260200190815260200160002080549050905060018101600a60003373ffffffffffffffffffffffffffffffffffffffff1673ffffffffffffffffffffffffffffffffffffffff1681526020019081526020016000206000600d54815260200190815260200160002081905550600d54600b60003373ffffffffffffffffffffffffffffffffffffffff1673ffffffffffffffffffffffffffffffffffffffff168152602001908152602001600020600060018401815260200190815260200160002081905550600960003373ffffffffffffffffffffffffffffffffffffffff1673ffffffffffffffffffffffffffffffffffffffff168152602001908152602001600020829080600181540180825580915050906001820390600052602060002090600902016000909192909190915060008201518160000190805190602001906132ff92919061487b565b50602082015181600101908051906020019061331c92919061487b565b50604082015181600201908051906020019061333992919061487b565b50606082015181600301556080820151816004015560a0820151816005015560c08201518160060160006101000a81548173ffffffffffffffffffffffffffffffffffffffff021916908373ffffffffffffffffffffffffffffffffffffffff16021790555060e08201518160070160006101000a81548173ffffffffffffffffffffffffffffffffffffffff021916908373ffffffffffffffffffffffffffffffffffffffff16021790555061010082015181600801555050507f9159ec84a2e5c34213510966eddb52340436ecf87602e7af724548cbf0d8e944600d546040516134259190615653565b60405180910390a16134436001600d5461460d90919063ffffffff16565b600d8190555061349e60018060003373ffffffffffffffffffffffffffffffffffffffff1673ffffffffffffffffffffffffffffffffffffffff1681526020019081526020016000206002015461460d90919063ffffffff16565b600160003373ffffffffffffffffffffffffffffffffffffffff1673ffffffffffffffffffffffffffffffffffffffff1681526020019081526020016000206002018190555050505050505050505050565b6000600b60008373ffffffffffffffffffffffffffffffffffffffff1673ffffffffffffffffffffffffffffffffffffffff168152602001908152602001600020600084815260200190815260200160002054905092915050565b60011515600160003373ffffffffffffffffffffffffffffffffffffffff1673ffffffffffffffffffffffffffffffffffffffff16815260200190815260200160002060000160009054906101000a900460ff161515146135e1576040517f08c379a00000000000000000000000000000000000000000000000000000000081526004016135d890615511565b60405180910390fd5b813373ffffffffffffffffffffffffffffffffffffffff166002600083815260200190815260200160002060009054906101000a900473ffffffffffffffffffffffffffffffffffffffff1673ffffffffffffffffffffffffffffffffffffffff1614613683576040517f08c379a000000000000000000000000000000000000000000000000000000000815260040161367a90615611565b60405180910390fd5b8160011515600160008373ffffffffffffffffffffffffffffffffffffffff1673ffffffffffffffffffffffffffffffffffffffff16815260200190815260200160002060000160019054906101000a900460ff1615151461371a576040517f08c379a000000000000000000000000000000000000000000000000000000000815260040161371190615531565b60405180910390fd5b826002600086815260200190815260200160002060006101000a81548173ffffffffffffffffffffffffffffffffffffffff021916908373ffffffffffffffffffffffffffffffffffffffff1602179055506000600660003373ffffffffffffffffffffffffffffffffffffffff1673ffffffffffffffffffffffffffffffffffffffff1681526020019081526020016000208054905090506000600760003373ffffffffffffffffffffffffffffffffffffffff1673ffffffffffffffffffffffffffffffffffffffff16815260200190815260200160002060008781526020019081526020016000205490506138106147be565b600660003373ffffffffffffffffffffffffffffffffffffffff1673ffffffffffffffffffffffffffffffffffffffff168152602001908152602001600020600183038154811061385d57fe5b90600052602060002090600502016040518060a0016040529081600082018054600181600116156101000203166002900480601f01602080910402602001604051908101604052809291908181526020018280546001816001161561010002031660029004801561390f5780601f106138e45761010080835404028352916020019161390f565b820191906000526020600020905b8154815290600101906020018083116138f257829003601f168201915b50505050508152602001600182018054600181600116156101000203166002900480601f0160208091040260200160405190810160405280929190818152602001828054600181600116156101000203166002900480156139b15780601f10613986576101008083540402835291602001916139b1565b820191906000526020600020905b81548152906001019060200180831161399457829003601f168201915b50505050508152602001600282018054600181600116156101000203166002900480601f016020809104026020016040519081016040528092919081815260200182805460018160011615610100020316600290048015613a535780601f10613a2857610100808354040283529160200191613a53565b820191906000526020600020905b815481529060010190602001808311613a3657829003601f168201915b50505050508152602001600382015481526020016004820160009054906101000a900473ffffffffffffffffffffffffffffffffffffffff1673ffffffffffffffffffffffffffffffffffffffff1673ffffffffffffffffffffffffffffffffffffffff168152505090506000600860003373ffffffffffffffffffffffffffffffffffffffff1673ffffffffffffffffffffffffffffffffffffffff16815260200190815260200160002060008581526020019081526020016000205490506000600860003373ffffffffffffffffffffffffffffffffffffffff1673ffffffffffffffffffffffffffffffffffffffff16815260200190815260200160002060008681526020019081526020016000208190555080600860003373ffffffffffffffffffffffffffffffffffffffff1673ffffffffffffffffffffffffffffffffffffffff16815260200190815260200160002060008581526020019081526020016000208190555082600760003373ffffffffffffffffffffffffffffffffffffffff1673ffffffffffffffffffffffffffffffffffffffff1681526020019081526020016000206000838152602001908152602001600020819055506000600760003373ffffffffffffffffffffffffffffffffffffffff1673ffffffffffffffffffffffffffffffffffffffff16815260200190815260200160002060008a815260200190815260200160002081905550600660003373ffffffffffffffffffffffffffffffffffffffff1673ffffffffffffffffffffffffffffffffffffffff1681526020019081526020016000206001850381548110613cb657fe5b9060005260206000209060050201600660003373ffffffffffffffffffffffffffffffffffffffff1673ffffffffffffffffffffffffffffffffffffffff1681526020019081526020016000206001850381548110613d1157fe5b906000526020600020906005020160008201816000019080546001816001161561010002031660029004613d469291906146bd565b5060018201816001019080546001816001161561010002031660029004613d6e9291906146bd565b5060028201816002019080546001816001161561010002031660029004613d969291906146bd565b50600382015481600301556004820160009054906101000a900473ffffffffffffffffffffffffffffffffffffffff168160040160006101000a81548173ffffffffffffffffffffffffffffffffffffffff021916908373ffffffffffffffffffffffffffffffffffffffff160217905550905050600660003373ffffffffffffffffffffffffffffffffffffffff1673ffffffffffffffffffffffffffffffffffffffff1681526020019081526020016000206001850381548110613e5857fe5b906000526020600020906005020160008082016000613e779190614744565b600182016000613e879190614744565b600282016000613e979190614744565b60038201600090556004820160006101000a81549073ffffffffffffffffffffffffffffffffffffffff02191690555050600660003373ffffffffffffffffffffffffffffffffffffffff1673ffffffffffffffffffffffffffffffffffffffff168152602001908152602001600020805480919060019003613f1a91906148fb565b506000600660008973ffffffffffffffffffffffffffffffffffffffff1673ffffffffffffffffffffffffffffffffffffffff16815260200190815260200160002080549050905060018101600760008a73ffffffffffffffffffffffffffffffffffffffff1673ffffffffffffffffffffffffffffffffffffffff1681526020019081526020016000206000600c5481526020019081526020016000208190555088600860008a73ffffffffffffffffffffffffffffffffffffffff1673ffffffffffffffffffffffffffffffffffffffff168152602001908152602001600020600060018401815260200190815260200160002081905550600660008973ffffffffffffffffffffffffffffffffffffffff1673ffffffffffffffffffffffffffffffffffffffff1681526020019081526020016000208390806001815401808255809150509060018203906000526020600020906005020160009091929091909150600082015181600001908051906020019061409b92919061487b565b5060208201518160010190805190602001906140b892919061487b565b5060408201518160020190805190602001906140d592919061487b565b506060820151816003015560808201518160040160006101000a81548173ffffffffffffffffffffffffffffffffffffffff021916908373ffffffffffffffffffffffffffffffffffffffff16021790555050505061417f60018060003373ffffffffffffffffffffffffffffffffffffffff1673ffffffffffffffffffffffffffffffffffffffff168152602001908152602001600020600101546145c390919063ffffffff16565b600160003373ffffffffffffffffffffffffffffffffffffffff1673ffffffffffffffffffffffffffffffffffffffff1681526020019081526020016000206001018190555061421a60018060008b73ffffffffffffffffffffffffffffffffffffffff1673ffffffffffffffffffffffffffffffffffffffff1681526020019081526020016000206001015461460d90919063ffffffff16565b600160008a73ffffffffffffffffffffffffffffffffffffffff1673ffffffffffffffffffffffffffffffffffffffff168152602001908152602001600020600101819055507f2febbfd0fbd68e2ba99226a3657a2b8845cba5b1c9f98da408c0125369e439fb8960405161428f9190615653565b60405180910390a1505050505050505050565b60006002600083815260200190815260200160002060009054906101000a900473ffffffffffffffffffffffffffffffffffffffff169050919050565b6060600660008373ffffffffffffffffffffffffffffffffffffffff1673ffffffffffffffffffffffffffffffffffffffff168152602001908152602001600020805480602002602001604051908101604052809291908181526020016000905b828210156145b857838290600052602060002090600502016040518060a0016040529081600082018054600181600116156101000203166002900480601f0160208091040260200160405190810160405280929190818152602001828054600181600116156101000203166002900480156143fc5780601f106143d1576101008083540402835291602001916143fc565b820191906000526020600020905b8154815290600101906020018083116143df57829003601f168201915b50505050508152602001600182018054600181600116156101000203166002900480601f01602080910402602001604051908101604052809291908181526020018280546001816001161561010002031660029004801561449e5780601f106144735761010080835404028352916020019161449e565b820191906000526020600020905b81548152906001019060200180831161448157829003601f168201915b50505050508152602001600282018054600181600116156101000203166002900480601f0160208091040260200160405190810160405280929190818152602001828054600181600116156101000203166002900480156145405780601f1061451557610100808354040283529160200191614540565b820191906000526020600020905b81548152906001019060200180831161452357829003601f168201915b50505050508152602001600382015481526020016004820160009054906101000a900473ffffffffffffffffffffffffffffffffffffffff1673ffffffffffffffffffffffffffffffffffffffff1673ffffffffffffffffffffffffffffffffffffffff168152505081526020019060010190614340565b505050509050919050565b600061460583836040518060400160405280601e81526020017f536166654d6174683a207375627472616374696f6e206f766572666c6f770000815250614662565b905092915050565b600080828401905083811015614658576040517f08c379a000000000000000000000000000000000000000000000000000000000815260040161464f90615551565b60405180910390fd5b8091505092915050565b60008383111582906146aa576040517f08c379a00000000000000000000000000000000000000000000000000000000081526004016146a191906154ef565b60405180910390fd5b5060008385039050809150509392505050565b828054600181600116156101000203166002900490600052602060002090601f016020900481019282601f106146f65780548555614733565b8280016001018555821561473357600052602060002091601f016020900482015b82811115614732578254825591600101919060010190614717565b5b509050614740919061492d565b5090565b50805460018160011615610100020316600290046000825580601f1061476a5750614789565b601f016020900490600052602060002090810190614788919061492d565b5b50565b8154818355818111156147b9576009028160090283600052602060002091820191016147b89190614952565b5b505050565b6040518060a0016040528060608152602001606081526020016060815260200160008152602001600073ffffffffffffffffffffffffffffffffffffffff1681525090565b604051806101200160405280606081526020016060815260200160608152602001600081526020016000815260200160008152602001600073ffffffffffffffffffffffffffffffffffffffff168152602001600073ffffffffffffffffffffffffffffffffffffffff168152602001600081525090565b828054600181600116156101000203166002900490600052602060002090601f016020900481019282601f106148bc57805160ff19168380011785556148ea565b828001600101855582156148ea579182015b828111156148e95782518255916020019190600101906148ce565b5b5090506148f7919061492d565b5090565b815481835581811115614928576005028160050283600052602060002091820191016149279190614a0f565b5b505050565b61494f91905b8082111561494b576000816000905550600101614933565b5090565b90565b614a0c91905b80821115614a0857600080820160006149719190614744565b6001820160006149819190614744565b6002820160006149919190614744565b6003820160009055600482016000905560058201600090556006820160006101000a81549073ffffffffffffffffffffffffffffffffffffffff02191690556007820160006101000a81549073ffffffffffffffffffffffffffffffffffffffff0219169055600882016000905550600901614958565b5090565b90565b614a8a91905b80821115614a865760008082016000614a2e9190614744565b600182016000614a3e9190614744565b600282016000614a4e9190614744565b60038201600090556004820160006101000a81549073ffffffffffffffffffffffffffffffffffffffff021916905550600501614a15565b5090565b90565b600081359050614a9c8161581c565b92915050565b600082601f830112614ab357600080fd5b8135614ac6614ac18261569b565b61566e565b91508082526020830160208301858383011115614ae257600080fd5b614aed8382846157c9565b50505092915050565b600081359050614b0581615833565b92915050565b600060208284031215614b1d57600080fd5b6000614b2b84828501614a8d565b91505092915050565b60008060008060808587031215614b4a57600080fd5b600085013567ffffffffffffffff811115614b6457600080fd5b614b7087828801614aa2565b945050602085013567ffffffffffffffff811115614b8d57600080fd5b614b9987828801614aa2565b935050604085013567ffffffffffffffff811115614bb657600080fd5b614bc287828801614aa2565b9250506060614bd387828801614af6565b91505092959194509250565b600060208284031215614bf157600080fd5b6000614bff84828501614af6565b91505092915050565b60008060408385031215614c1b57600080fd5b6000614c2985828601614af6565b9250506020614c3a85828601614a8d565b9150509250929050565b600080600080600080600060e0888a031215614c5f57600080fd5b6000614c6d8a828b01614af6565b975050602088013567ffffffffffffffff811115614c8a57600080fd5b614c968a828b01614aa2565b965050604088013567ffffffffffffffff811115614cb357600080fd5b614cbf8a828b01614aa2565b955050606088013567ffffffffffffffff811115614cdc57600080fd5b614ce88a828b01614aa2565b9450506080614cf98a828b01614af6565b93505060a0614d0a8a828b01614af6565b92505060c0614d1b8a828b01614af6565b91505092959891949750929550565b6000614d368383615275565b905092915050565b6000614d4a83836153cc565b905092915050565b614d5b8161578d565b82525050565b614d6a8161578d565b82525050565b6000614d7b826156e7565b614d858185615738565b935083602082028501614d97856156c7565b8060005b85811015614dd35784840389528151614db48582614d2a565b9450614dbf8361571e565b925060208a01995050600181019050614d9b565b50829750879550505050505092915050565b6000614df0826156f2565b614dfa8185615749565b935083602082028501614e0c856156d7565b8060005b85811015614e485784840389528151614e298582614d3e565b9450614e348361572b565b925060208a01995050600181019050614e10565b50829750879550505050505092915050565b6000614e6582615708565b614e6f818561576b565b9350614e7f8185602086016157d8565b614e888161580b565b840191505092915050565b6000614e9e826156fd565b614ea8818561575a565b9350614eb88185602086016157d8565b614ec18161580b565b840191505092915050565b6000614ed782615713565b614ee1818561577c565b9350614ef18185602086016157d8565b614efa8161580b565b840191505092915050565b6000614f1260378361577c565b91507f4f6e6c7920726567697374657265642070726f6475636572732068617665206160008301527f636365737320746f20746869732066756e6374696f6e210000000000000000006020830152604082019050919050565b6000614f78602b8361577c565b91507f4c69737465642041646472657373206973206e6f74207265676973746572656460008301527f2070726f636573736f72210000000000000000000000000000000000000000006020830152604082019050919050565b6000614fde601b8361577c565b91507f536166654d6174683a206164646974696f6e206f766572666c6f7700000000006000830152602082019050919050565b600061501e60378361577c565b91507f4f6e6c7920726567697374657265642072657461696c6572732068617665206160008301527f636365737320746f20746869732066756e6374696f6e210000000000000000006020830152604082019050919050565b600061508460388361577c565b91507f4f6e6c7920726567697374657265642070726f636573736f727320686176652060008301527f61636365737320746f20746869732066756e6374696f6e2100000000000000006020830152604082019050919050565b60006150ea602a8361577c565b91507f4c69737465642041646472657373206973206e6f74207265676973746572656460008301527f2072657461696c657221000000000000000000000000000000000000000000006020830152604082019050919050565b600061515060368361577c565b91507f4f6e6c79206f776e6572206f6620746865207061636b6167652068617320616360008301527f6365737320746f20746869732066756e6374696f6e21000000000000000000006020830152604082019050919050565b60006151b660318361577c565b91507f4f6e6c7920636f6e7472616374206f776e65722068617665206163636573732060008301527f746f20746869732066756e6374696f6e210000000000000000000000000000006020830152604082019050919050565b600061521c60368361577c565b91507f4f6e6c79206f776e6572206f66207468652070726f647563652068617320616360008301527f6365737320746f20746869732066756e6374696f6e21000000000000000000006020830152604082019050919050565b60006101208301600083015184820360008601526152938282614e93565b915050602083015184820360208601526152ad8282614e93565b915050604083015184820360408601526152c78282614e93565b91505060608301516152dc6060860182615450565b5060808301516152ef6080860182615450565b5060a083015161530260a0860182615450565b5060c083015161531560c0860182614d52565b5060e083015161532860e0860182614d52565b5061010083015161533d610100860182615450565b508091505092915050565b600060a08301600083015184820360008601526153658282614e93565b9150506020830151848203602086015261537f8282614e93565b915050604083015184820360408601526153998282614e93565b91505060608301516153ae6060860182615450565b5060808301516153c16080860182614d52565b508091505092915050565b600060a08301600083015184820360008601526153e98282614e93565b915050602083015184820360208601526154038282614e93565b9150506040830151848203604086015261541d8282614e93565b91505060608301516154326060860182615450565b5060808301516154456080860182614d52565b508091505092915050565b615459816157bf565b82525050565b615468816157bf565b82525050565b60006020820190506154836000830184614d61565b92915050565b600060208201905081810360008301526154a38184614d70565b905092915050565b600060208201905081810360008301526154c58184614de5565b905092915050565b600060208201905081810360008301526154e78184614e5a565b905092915050565b600060208201905081810360008301526155098184614ecc565b905092915050565b6000602082019050818103600083015261552a81614f05565b9050919050565b6000602082019050818103600083015261554a81614f6b565b9050919050565b6000602082019050818103600083015261556a81614fd1565b9050919050565b6000602082019050818103600083015261558a81615011565b9050919050565b600060208201905081810360008301526155aa81615077565b9050919050565b600060208201905081810360008301526155ca816150dd565b9050919050565b600060208201905081810360008301526155ea81615143565b9050919050565b6000602082019050818103600083015261560a816151a9565b9050919050565b6000602082019050818103600083015261562a8161520f565b9050919050565b6000602082019050818103600083015261564b8184615348565b905092915050565b6000602082019050615668600083018461545f565b92915050565b6000604051905081810181811067ffffffffffffffff8211171561569157600080fd5b8060405250919050565b600067ffffffffffffffff8211156156b257600080fd5b601f19601f8301169050602081019050919050565b6000819050602082019050919050565b6000819050602082019050919050565b600081519050919050565b600081519050919050565b600081519050919050565b600081519050919050565b600081519050919050565b6000602082019050919050565b6000602082019050919050565b600082825260208201905092915050565b600082825260208201905092915050565b600082825260208201905092915050565b600082825260208201905092915050565b600082825260208201905092915050565b60006157988261579f565b9050919050565b600073ffffffffffffffffffffffffffffffffffffffff82169050919050565b6000819050919050565b82818337600083830152505050565b60005b838110156157f65780820151818401526020810190506157db565b83811115615805576000848401525b50505050565b6000601f19601f8301169050919050565b6158258161578d565b811461583057600080fd5b50565b61583c816157bf565b811461584757600080fd5b5056fea365627a7a723158201f7da7c069c979846e054078c574c3833ef4ca39a3424b48625ca63de55acb486c6578706572696d656e74616cf564736f6c63430005100040",
  "source": "pragma solidity ^0.5.0;\r\npragma experimental ABIEncoderV2;\r\n\r\nimport \"../node_modules/@openzeppelin/contracts/Math/SafeMath.sol\";\r\nimport \"../node_modules/@openzeppelin/contracts/utils/Address.sol\";\r\n\r\ncontract FoodChainEcosystem {\r\n    using SafeMath for uint;\r\n    using Address for address;\r\n    address contractOwner;\r\n\r\n    constructor() public { \r\n        contractOwner = msg.sender;\r\n    }\r\n\r\n    struct userInformation {\r\n        bool isProducer;\r\n        bool isProcessor;\r\n        bool isRetailer;\r\n        uint256 produceQuantity;\r\n        uint256 packageQuantity;\r\n    }\r\n\r\n    mapping(address => userInformation) private _userInformations;\r\n    event RegisteredProducer(address producerAddress);\r\n    event RegisteredProcessor(address processorAddress);\r\n    event RegisteredRetailer(address retailerAddress);\r\n\r\n    modifier isContractOwner() {\r\n        require(msg.sender == contractOwner, \"Only contract owner have access to this function!\");\r\n        _;\r\n    }\r\n\r\n    modifier isProducer() {\r\n        require(_userInformations[msg.sender].isProducer == true, \"Only registered producers have access to this function!\");\r\n        _;\r\n    }\r\n\r\n    modifier isProcessor() {\r\n        require(_userInformations[msg.sender].isProcessor == true, \"Only registered processors have access to this function!\");\r\n        _;\r\n    }\r\n\r\n    modifier isRetailer() {\r\n        require(_userInformations[msg.sender].isRetailer == true, \"Only registered retailers have access to this function!\");\r\n        _;\r\n    }\r\n\r\n\r\n    modifier isProcessorAddress(address processor) {\r\n        require(_userInformations[processor].isProcessor == true, \"Listed Address is not registered processor!\");\r\n        _;\r\n    }\r\n\r\n    modifier isRetailerAddress(address processor) {\r\n        require(_userInformations[processor].isRetailer == true, \"Listed Address is not registered retailer!\");\r\n        _;\r\n    }\r\n\r\n    modifier isProduceOwner(uint256 produceID) {\r\n        require(_produceOwner[produceID] == msg.sender, \"Only owner of the produce has access to this function!\");\r\n        _;\r\n    }\r\n\r\n    modifier isPackageOwner(uint256 packageID) {\r\n        require(_packageOwner[packageID] == msg.sender, \"Only owner of the package has access to this function!\");\r\n        _;\r\n    }\r\n\r\n    function registerProducer(address producerAddress) public isContractOwner() {\r\n        _userInformations[producerAddress].isProducer = true;\r\n        emit RegisteredProducer(producerAddress);\r\n    }\r\n\r\n    function registerProcessor(address processorAddress) public isContractOwner() {\r\n        _userInformations[processorAddress].isProcessor = true;\r\n        emit RegisteredProcessor(processorAddress);\r\n    }\r\n\r\n    function registerRetailer(address retailerAddress) public isContractOwner() {\r\n        _userInformations[retailerAddress].isRetailer = true;\r\n        emit RegisteredRetailer(retailerAddress);\r\n    }\r\n\r\n    struct produce {\r\n        bytes produceReferenceID;\r\n        bytes produceName;\r\n        bytes diet;\r\n        uint dateOfBirth;\r\n        address producer;\r\n    }\r\n\r\n    struct package {\r\n        bytes packageReferenceID;\r\n        bytes packageName;\r\n        bytes packagedCategory;\r\n        uint packagedWeight;\r\n        uint packagedDate;\r\n        uint bestBefore;\r\n        address processor;\r\n        address retailer;\r\n        uint256 assetID;\r\n    }\r\n\r\n    mapping (uint256 => address) private _produceOwner;\r\n    mapping (uint256 => address) private _packageOwner;\r\n\r\n    mapping(uint256 => produce) private _produces;\r\n    mapping(uint256 => package) private _packages;\r\n\r\n    mapping (address => produce[]) private _ownedProduceList;\r\n    // maps to address to produce ID to index\r\n    mapping(address => mapping(uint => uint)) private _indexOfProduceList;\r\n    // maps to address to index to produce ID\r\n    mapping(address => mapping(uint => uint)) private _produceIDOfIndexList;\r\n\r\n    mapping (address => package[]) private _ownedPackageList;\r\n    mapping(address => mapping(uint => uint)) private _indexOfPackageList;\r\n    mapping(address => mapping(uint => uint)) private _packageIDOfIndexList;\r\n\r\n    event CreatedProduce(uint256 produceID);\r\n    event ProcessedProduce(uint256 produceID);\r\n    event CreatedPackage(uint256 packageID);\r\n    event DeliveredPackage(uint256 packageID);\r\n    event SoldPackage(uint256 packageID);\r\n\r\n    uint256 totalProduceSupply;\r\n    uint256 totalPackageSupply;\r\n\r\n    function createProduce(bytes memory produceReferenceID, bytes memory produceName, bytes memory diet, uint dateofBirth) public isProducer() {\r\n        produce memory newProduct = produce(produceReferenceID, produceName, diet, dateofBirth, msg.sender);\r\n        _produces[totalProduceSupply] = newProduct;\r\n        _produceOwner[totalProduceSupply] = msg.sender;\r\n\r\n        uint256 index = _ownedProduceList[msg.sender].length;\r\n        _indexOfProduceList[msg.sender][totalProduceSupply] = index + 1;\r\n        _produceIDOfIndexList[msg.sender][index + 1] = totalProduceSupply;\r\n\r\n        _ownedProduceList[msg.sender].push(newProduct);\r\n        emit CreatedProduce(totalProduceSupply);\r\n        totalProduceSupply = totalProduceSupply.add(1);\r\n        _userInformations[msg.sender].produceQuantity = _userInformations[msg.sender].produceQuantity.add(1);\r\n    }\r\n\r\n    function sendForProcessing(uint256 produceID, address processor) public \r\n    isProducer() isProduceOwner(produceID) isProcessorAddress(processor) {\r\n        _produceOwner[produceID] = processor;\r\n        // Retrieve the selected produce and it's respective index on the producer owned array\r\n        uint256 producerArrayLength = _ownedProduceList[msg.sender].length;\r\n        uint256 produceOldIndex = _indexOfProduceList[msg.sender][produceID];\r\n        produce memory transferringProduce = _ownedProduceList[msg.sender][produceOldIndex - 1];\r\n        uint256 swappedProduceID = _produceIDOfIndexList[msg.sender][producerArrayLength];\r\n        // Swapping selected produce with the last in array and deleting off the last one\r\n        // updates the index of the swapped produce\r\n        _produceIDOfIndexList[msg.sender][producerArrayLength] = 0;\r\n        _produceIDOfIndexList[msg.sender][produceOldIndex] = swappedProduceID;\r\n\r\n        _indexOfProduceList[msg.sender][swappedProduceID] = produceOldIndex;\r\n        _indexOfProduceList[msg.sender][produceID] = 0;\r\n\r\n        _ownedProduceList[msg.sender][produceOldIndex - 1] = _ownedProduceList[msg.sender][producerArrayLength - 1];\r\n        delete _ownedProduceList[msg.sender][producerArrayLength - 1];\r\n        _ownedProduceList[msg.sender].length--;\r\n\r\n        uint256 indexProcessor = _ownedProduceList[processor].length;\r\n        _indexOfProduceList[processor][totalProduceSupply] = indexProcessor + 1;\r\n        _produceIDOfIndexList[processor][indexProcessor + 1] = produceID;\r\n        _ownedProduceList[processor].push(transferringProduce);\r\n\r\n        _userInformations[msg.sender].produceQuantity = _userInformations[msg.sender].produceQuantity.sub(1);\r\n        _userInformations[processor].produceQuantity = _userInformations[processor].produceQuantity.add(1);\r\n        emit ProcessedProduce(produceID);\r\n    }\r\n\r\n    function createPackage(uint256 produceID, \r\n                            bytes memory packageReferenceID, \r\n                            bytes memory packageName,\r\n                            bytes memory packagedCategory, \r\n                            uint packagedWeight, \r\n                            uint packagedDate, \r\n                            uint bestBefore) public isProcessor() isProduceOwner(produceID) {\r\n        package memory newPackage = package(packageReferenceID, packageName, packagedCategory, packagedWeight, \r\n                                            packagedDate, bestBefore, msg.sender, address(0), produceID);\r\n        _packages[totalPackageSupply] = newPackage;\r\n        _packageOwner[totalPackageSupply] = msg.sender;\r\n\r\n        uint256 index = _ownedPackageList[msg.sender].length;\r\n        _indexOfPackageList[msg.sender][totalPackageSupply] = index + 1;\r\n        _packageIDOfIndexList[msg.sender][index + 1] = totalPackageSupply;\r\n\r\n        _ownedPackageList[msg.sender].push(newPackage);\r\n        emit CreatedPackage(totalPackageSupply);\r\n        totalPackageSupply = totalPackageSupply.add(1);\r\n        _userInformations[msg.sender].packageQuantity = _userInformations[msg.sender].packageQuantity.add(1);\r\n    }\r\n\r\n    function sendToRetailer(uint256 packageID, address retailer) public \r\n    isProcessor() isPackageOwner(packageID) isRetailerAddress(retailer) {\r\n        _packageOwner[packageID] = retailer;\r\n        // Retrieve the selected package and it's respective index on the packager owned array\r\n        uint256 packagerArrayLength = _ownedPackageList[msg.sender].length;\r\n        uint256 packageOldIndex = _indexOfPackageList[msg.sender][packageID];\r\n        _ownedPackageList[msg.sender][packageOldIndex - 1].retailer = retailer;\r\n        package memory transferringPackage = _ownedPackageList[msg.sender][packageOldIndex - 1];\r\n        uint256 swappedPackageID = _packageIDOfIndexList[msg.sender][packagerArrayLength];\r\n        // Swapping selected package with the last in array and deleting off the last one\r\n        // updates the index of the swapped package\r\n        _packageIDOfIndexList[msg.sender][packagerArrayLength] = 0;\r\n        _packageIDOfIndexList[msg.sender][packageOldIndex] = swappedPackageID;\r\n\r\n        _indexOfPackageList[msg.sender][swappedPackageID] = packageOldIndex;\r\n        _indexOfPackageList[msg.sender][packageID] = 0;\r\n\r\n        _ownedPackageList[msg.sender][packageOldIndex - 1] = _ownedPackageList[msg.sender][packagerArrayLength - 1];\r\n        delete _ownedPackageList[msg.sender][packagerArrayLength - 1];\r\n        _ownedPackageList[msg.sender].length--;\r\n\r\n        uint256 indexRetailer = _ownedPackageList[retailer].length;\r\n        _indexOfPackageList[retailer][totalPackageSupply] = indexRetailer + 1;\r\n        _packageIDOfIndexList[retailer][indexRetailer + 1] = packageID;\r\n        _ownedPackageList[retailer].push(transferringPackage);\r\n\r\n        _userInformations[msg.sender].packageQuantity = _userInformations[msg.sender].packageQuantity.sub(1);\r\n        _userInformations[retailer].packageQuantity = _userInformations[retailer].packageQuantity.add(1);\r\n        emit DeliveredPackage(packageID);\r\n    }\r\n\r\n    function sellPackage(uint256 packageID) public isRetailer() isPackageOwner(packageID) {\r\n        _packageOwner[packageID] = address(0);\r\n\r\n        uint256 packagerArrayLength = _ownedPackageList[msg.sender].length;\r\n        uint256 packageOldIndex = _indexOfPackageList[msg.sender][packageID];\r\n        // package memory transferringPackage = _ownedPackageList[msg.sender][packageOldIndex - 1];\r\n        uint256 swappedPackageID = _packageIDOfIndexList[msg.sender][packagerArrayLength];\r\n\r\n        _packageIDOfIndexList[msg.sender][packagerArrayLength] = 0;\r\n        _packageIDOfIndexList[msg.sender][packageOldIndex] = swappedPackageID;\r\n\r\n        _indexOfPackageList[msg.sender][swappedPackageID] = packageOldIndex;\r\n        _indexOfPackageList[msg.sender][packageID] = 0;\r\n\r\n        _ownedPackageList[msg.sender][packageOldIndex - 1] = _ownedPackageList[msg.sender][packagerArrayLength - 1];\r\n        delete _ownedPackageList[msg.sender][packagerArrayLength - 1];\r\n        _ownedPackageList[msg.sender].length--;\r\n\r\n        _userInformations[msg.sender].packageQuantity = _userInformations[msg.sender].packageQuantity.sub(1);\r\n        emit SoldPackage(packageID);\r\n    }\r\n\r\n    // Getter functions; publiv view methods which are free //\r\n    function getProduceInformation(uint256 produceID) public view returns (produce memory) {\r\n        address owner = _produceOwner[produceID];\r\n        uint256 produceIndex = _indexOfProduceList[owner][produceID];\r\n        return _ownedProduceList[owner][produceIndex];\r\n    }\r\n\r\n    function getNumberProduce(address selectedUser) public view returns (uint256) {\r\n        // return _userInformations[selectedUser].produceQuantity;\r\n        return _ownedProduceList[selectedUser].length;\r\n    }\r\n\r\n    function getNumberPackage(address selectedUser) public view returns (uint256) {\r\n        // return _userInformations[selectedUser].packageQuantity;\r\n        return _ownedPackageList[selectedUser].length;\r\n    }\r\n\r\n    function getProduceOwner(uint256 produceID) public view returns (address) {\r\n        return _produceOwner[produceID];\r\n    }\r\n\r\n    function getProduceIndex(uint256 produceID, address owner) public view returns (uint256) {\r\n        return _indexOfProduceList[owner][produceID];\r\n    }\r\n\r\n    function getProduceIDFromIndex(uint256 index, address owner) public view returns (uint256) {\r\n        return _produceIDOfIndexList[owner][index];\r\n    }\r\n\r\n    function getProduceNameFromIndex(uint256 index, address owner) public view returns (bytes memory) {\r\n        return _ownedProduceList[owner][index].produceName;\r\n    } \r\n\r\n    function getProduceOwned(address ownerAddress) public view returns (produce[] memory) {\r\n        return _ownedProduceList[ownerAddress];\r\n    }\r\n\r\n    function getPackageOwner(uint256 packageID) public view returns (address) {\r\n        return _packageOwner[packageID];\r\n    }\r\n\r\n    function getPackageIndex(uint256 packageID, address owner) public view returns (uint256) {\r\n        return _indexOfPackageList[owner][packageID];\r\n    }\r\n\r\n    function getPackageIDFromIndex(uint256 index, address owner) public view returns (uint256) {\r\n        return _packageIDOfIndexList[owner][index];\r\n    }\r\n\r\n    function getPackagesOwned(address ownerAddress) public view returns (package[] memory) {\r\n        return _ownedPackageList[ownerAddress];\r\n    }\r\n\r\n    function getTotalProduce() public view returns (uint256) {\r\n        return totalProduceSupply;\r\n    }\r\n\r\n    function getTotalPackage() public view returns (uint256) {\r\n        return totalPackageSupply;\r\n    }\r\n\r\n\r\n\r\n    // Internal functions for manipulation, will not be exposed to public\r\n    function _toBytes(uint256 x) internal pure returns (bytes memory b) {\r\n    b = new bytes(32);\r\n    for (uint i = 0; i < 32; i++) {\r\n        b[i] = byte(uint8(x / (2**(8*(31 - i))))); \r\n        }\r\n    }\r\n\r\n    function _convertIntToString(uint256 _number) internal pure returns (string memory) {\r\n        uint256 _tmpN = _number;\r\n        if (_tmpN == 0) {\r\n            return \"0\";\r\n        } \r\n        uint256 j = _tmpN;\r\n        uint256 length = 0;\r\n        while (j != 0){\r\n            length++;\r\n            j /= 10;\r\n        }\r\n        bytes memory bstr = new bytes(length);\r\n        uint256 k = length - 1;\r\n        while (_tmpN != 0) {\r\n            bstr[k--] = byte(uint8(48 + _tmpN % 10));\r\n            _tmpN /= 10;\r\n        }\r\n        return string(bstr);\r\n    }\r\n\r\n    function _append(string memory a, string memory b) internal pure returns (string memory) {\r\n        return string(abi.encodePacked(a, b));\r\n    }\r\n}",
  "sourcePath": "C:\\Users\\Huang Ming\\Desktop\\Hack4Good\\BackEnd\\contracts\\FoodChainEcosystem.sol",
  "compiler": {
    "name": "solc",
    "version": "0.5.16+commit.9c3226ce.Emscripten.clang"
  },
  "schemaVersion": "3.0.23",
  "updatedAt": "2020-03-17T04:42:03.577Z",
  "networkType": "ethereum",
  "devdoc": {
    "methods": {}
  },
  "userdoc": {
    "methods": {}
  }
}